:020000040800F2
:10000000D0040020ED0100080D2B00081B0F000894
:10001000092B000861080008B53400080000000042
:10002000000000000000000000000000DD2F0008BC
:10003000190F000800000000F12E00082130000810
:10004000070200080702000807020008070200086C
:10005000070200080702000807020008070200085C
:1000600007020008070200080702000869090008E3
:10007000070200080702000807020008070200083C
:10008000070200080702000807020008070200082C
:10009000070200080702000807020008070200081C
:1000A000070200080702000807020008070200080C
:1000B00007020008C531000807020008070200080F
:1000C00007020008070200080702000807020008EC
:1000D00007020008070200080702000807020008DC
:1000E00007020008070200080702000807020008CC
:1000F00007020008070200080702000807020008BC
:1001000007020008070200080702000807020008AB
:10011000070200080702000807020008070200089B
:10012000070200080702000807020008070200088B
:10013000070200080702000807020008070200087B
:10014000070200080702000807020008070200086B
:10015000070200080702000807020008070200085B
:10016000070200080702000807020008070200084B
:10017000070200080702000807020008070200083B
:10018000070200080702000807020008070200082B
:10019000070200080000000007020008070200082C
:1001A000070200080702000807020008B11D000846
:1001B00007020008070200080702000807020008FB
:1001C00007020008070200080702000807020008EB
:1001D0000702000807020008DFF80CD000F082FADE
:1001E000004800479D3E0008D00400200648804794
:1001F00006480047FEE7FEE7FEE7FEE7FEE7FEE70C
:10020000FEE7FEE7FEE7FEE7A9310008D901000896
:100210002DE9F05F0546002092469B46884606463B
:10022000814640241BE0284641464746224600F0CE
:10023000A2F953465A46C01A914110D311461846A6
:10024000224600F089F92D1A67EB01084F46224635
:100250000120002100F080F917EB00094E41201E1B
:10026000A4F10104DFDC484631462A464346BDE896
:10027000F09FD2B201E000F8012B491EFBD270477B
:100280000022F6E710B513460A4604461946FFF762
:10029000F0FF204610BD2DE9FE4F804681EA0300A5
:1002A000C00F0C46009021F0004123F00045B8EB50
:1002B0000200A94105D24046214690461C460B4605
:1002C000024623F00040104347D0270DC7F30A0031
:1002D000C3F30A510290401A019040286BDAC3F32D
:1002E000130040F4801B0098924620B10023D2EB0B
:1002F000030A63EB0B0B01985946C0F140025046CC
:1003000000F02AF906460D4650465946019A00F07B
:1003100042F910EB08006141002487EA115284EA97
:10032000E7731A4340D0009A62B3019A012A4FEA58
:10033000075215DC001B61EB02014FF0004202EA9C
:100340000752CDE90042001C41F5801132462B4690
:1003500000F079F903B0BDE8F08F40462146F9E797
:10036000001B61EB0201001C41F5801300185B418A
:100370002018A2F5001747EB030140EAD570B61923
:100380006D4111E06D084FEA360645EAC0754FEA47
:100390000752001B61EB0201001C41F58011490866
:1003A0004FEA30000019514132462B4603B0BDE8F8
:1003B000F04F00F039B90098012240000023D0EB43
:1003C000020263EBE073009821464FEAE074B8EB59
:1003D000000061EB0401E9E783F000435BE781F093
:1003E000004158E72DE9FE4F81EA030404F0004480
:1003F00021F0004100944FF0000B23F0004350EA3D
:1004000001045ED052EA03045BD0C3F30A54C1F383
:100410000A552C44A4F2F3340194A0FB0254C1F316
:10042000130141F48011C3F3130343F4801301FB60
:10043000024400FB034E840A970A44EA815447EAC7
:100440008357A4FB076802958D0A05FB07854FEAD1
:10045000932C04FB0C542705029D4FEA065847EAEB
:100460001637B5EB08056EEB070C870E920E47EAC0
:10047000811742EA8312A7FB0201B6EB0B0164EB82
:1004800000042B0D43EA0C335E1844EB1C50DA4693
:100490005146E7FB0201C5F313044FEA0B3343EA6D
:1004A00014534FEA0432019C43EA0603A4F10C04FE
:1004B0000294009CCDE900B400F0C5F803B0BDE89B
:1004C000F08F00200146F9E7C1F30A5210B5C1F3DD
:1004D000130140F2FF3341F480119A4201DA002007
:1004E00010BD40F233439A42A2F2334203DC52423F
:1004F00000F041F810BD904010BD00F0004230F017
:1005000000400AD0C10D01F56071C0F3160042EA47
:100510000151C2084007114370470020014670474F
:1005200001F0004330B421F0004150EA010206D04E
:100530000A0DA2F56072C1F31301002A02DC30BC7F
:1005400000207047440F44EAC104C100E01830BCE9
:1005500000EBC25000F031B8202A04DB203A00FA48
:1005600002F1002070479140C2F1200320FA03F30A
:10057000194390407047202A04DB203A21FA02F008
:100580000021704721FA02F3D040C2F120029140CD
:10059000084319467047202A06DBCB17203A41FA58
:1005A00002F043EAE07306E041FA02F3D040C2F100
:1005B000200291400843194670470029A8BF7047A0
:1005C000401C490008BF20F00100704710B4B0FA89
:1005D00080FC00FA0CF050EA010404BF10BC704724
:1005E00049B1CCF1200421FA04F411FA0CF118BF3E
:1005F000012121430843A3EB0C01CB1D4FEA00610D
:100600004FEA102042BF002010BC704700EBC350DF
:1006100010440029A4BF10BC7047401C490008BF0B
:1006200020F0010010BC704710B5141E73F10004D7
:1006300008DA401C41F1000192185B411A4301D1D4
:1006400020F0010010BD2DE9F04D92469B4611B1FE
:10065000B1FA81F202E0B0FA80F220329046FFF760
:100660007BFF04460F4640EA0A0041EA0B0153466D
:100670005A46084313D0114653EA010019D0C8F175
:1006800040025046FFF777FF05460E465046594652
:100690004246FFF761FF084305D0012004E02046F1
:1006A0003946BDE8F08D0020054346EAE0762C434C
:1006B00037430A986305E40AA0EB08000022FD0A0C
:1006C00044EA47540A3002D500200146E9E7010513
:1006D00010196941DDE9084500196941BDE8F04D8F
:1006E000A2E70000064C074D06E0E06840F0010379
:1006F00094E8070098471034AC42F6D3FFF770FD3A
:1007000048430008684300082DE9F04D81EA0304DE
:1007100004F0004B21F0004514464FF0000A23F08E
:10072000004150EA050220D054EA01021DD0C5F371
:100730000A570246C5F31303C1F31300C1F30A5667
:1007400040F4801543F48013A7EB0608101BD6462F
:1007500008F2FD3873EB050002D308F1010801E04F
:1007600092185B41B8F1000F03DA00200146BDE8A2
:10077000F08D00204FF48011064684460EE0171BD2
:1007800073EB050705D3121B63EB050306434CEA25
:10079000010C49084FEA300092185B4150EA01070A
:1007A000EDD152EA030012D082EA040083EA050187
:1007B000084305D0101BAB4106D20122002306E0FE
:1007C00000224FF0004302E06FF0010253101AEBD9
:1007D00006004CEB085110EB0A0041EB0B01BDE8A1
:1007E000F04DFFF721BF0EB5C10F80EAE07008445D
:1007F000CA07002140F233438DE80E000A460B463B
:10080000FFF721FF03B000BD0EB540F23341029166
:100810000021CDE900110A460B46FFF714FF03B093
:1008200000BD70B5C1F30A5201F000450024C1F3C8
:10083000130140F2FF3341F480119A4201DA0020A3
:1008400070BD40F233439A42A2F2334203DC52427B
:10085000FFF791FE00E090402C43F1D0404270BD84
:1008600000BFFEE710B5014600227F208B680A4CCE
:100870002340C40723438B6000BF00BF00BF8868CC
:10088000C00F0028FAD17F20D1F8B43003400024F3
:10089000E3409AB2104610BDC0FFFF3FDFED310AC2
:1008A000B0EE600AD0ED010A90ED001AC168D1EDFA
:1008B000011A41EE210AC0ED010AD0ED010AC1681A
:1008C00091ED031AF4EEC10AF1EE10FA05DDC168EC
:1008D000D1ED030AC0ED010A17E0D0ED010AC168AD
:1008E00091ED031AB1EE411AF4EEC10AF1EE10FADD
:1008F00007D2C168D1ED030AF1EE600AC0ED010A2A
:1009000003E0D0ED010AC0ED010AD0ED010AC16893
:1009100091ED001AD0ED001A41EE210AB0EE600A06
:10092000C168D1ED030AF4EEC00AF1EE10FA05D267
:10093000C168D1ED030AB0EE600A12E0C168D1EDE2
:10094000030AF1EE600AF4EEC00AF1EE10FA07DDD8
:10095000C168D1ED030AF1EE600AB0EE600A00E072
:1009600000BF70470000000010B52DED108B82B065
:10097000FE4800F0B2FFFE4908804FF0804000F0D2
:10098000ACFF00EE100AB8EE400ADFEDFA0A20EEE6
:10099000200AF94880ED000AF84800680A287DD14D
:1009A0000020F64908604FF08040006800F0100019
:1009B000F34908600846006888BBEF4890ED000ADC
:1009C000F048D0ED000AB4EEE00AF1EE10FA10DBC8
:1009D000E94890ED000AEB48D0ED000A30EE600ADD
:1009E000E948D0ED000A20EE200AE84880ED000A30
:1009F00049E0E14890ED000AE548D0ED000A30EE0C
:100A0000200AE048D0ED000A30EE600ADE48D0ED62
:100A1000000A20EE200ADD4880ED000A33E0FFE7FF
:100A2000D54890ED000AD748D0ED000AB4EEE00AB0
:100A3000F1EE10FA10D8D04890ED000AD148D0ED70
:100A4000000A30EE600AD048D0ED000A20EE200AFD
:100A5000CE4880ED000A16E0CA4890ED000AB1EEDB
:100A6000400ACB48D0ED000A30EE600AC248D0ED13
:100A7000000A30EE200AC448D0ED000A20EE200A19
:100A8000C24880ED000ABC4890ED000ABD4880EDE8
:100A9000000AC04890ED000ABC4800E00EE0D0ED2E
:100AA000000A30EE600ABC4880ED000AFFF7F6FE4F
:100AB000B1EE400AB94880ED000A04E0AF48006892
:100AC000401CAE490860B648006800EE100AF8EE17
:100AD000400AB44890ED001AB34890ED000A10EEB9
:100AE000810AB1EE400AB14880ED000AAC48406886
:100AF00000EE100AF8EE400AAA4890ED001AAA4843
:100B000090ED000A10EE810AB1EE400AA74880ED90
:100B1000010AA348806800EE100AF8EE400AA148D6
:100B200090ED001AA04890ED000A10EE810AB1EE97
:100B3000400A9E4880ED020A90ED020A10EE101A5B
:100B40000846FFF7DAFC41EC1B0B994890ED000AD0
:100B50008948D0ED000A974890ED001A00EE810A0E
:100B600010EE101A0846FFF7C8FC41EC1D0BB0EE62
:100B70004D0AF0EE6D0A02F0B7FCB0EE40CAF0EE9E
:100B800060CA53EC1B2B51EC1C0BFFF72BFC41EC08
:100B9000190B864890ED010A10EE101A0846FFF76F
:100BA000ACFC41EC1D0B844890ED000A7248D0ED7E
:100BB000000A804890ED001A00EE810A10EE101A2B
:100BC0000846FFF79AFC41EC1F0BB0EE4F0AF0EE1F
:100BD0006F0A02F089FCB0EE40EAF0EE60EA53ECF6
:100BE0001D2B51EC1E0BFFF7FDFB41EC1B0B6F485F
:100BF00090ED000A10EE101A0846FFF77EFC41EC5B
:100C00001D0B5D4890ED000A6A48D0ED000A20EE09
:100C1000200A10EE101A0846FFF76FFC41EC1F0B7C
:100C2000B0EE4F0AF0EE6F0A02F05EFCB0EE40EA62
:100C3000F0EE60EA53EC1D2B51EC1E0BFFF7D2FBDC
:100C400041EC1C0B53EC1B2BFFF725FB41EC1A0B63
:100C500053EC192BFFF71FFB41EC180B9FED570BC3
:100C600053EC102BFFF7BEFBCDE900019DED000B0F
:100C700051EC100BFFF754FC00EE100A514880EDC8
:100C8000000A464890ED000A4E48D0ED000A30EECA
:100C9000600A4D4880ED000AFFF700FE4B4880EDEA
:100CA000000A4B48006800285ED0334890ED000AE7
:100CB0004048D0ED000A20EE200A10EE101A084637
:100CC000FFF71BFC41EC1D0BB0EE4D0AF0EE6D0A78
:100CD00002F00AFCB0EE40BAF0EE60BA3B4890ED8C
:100CE000000A10EE100AFFF708FC41EC1C0B53EC55
:100CF0001B2BFFF777FB41EC1A0B9FED360B53ECE8
:100D0000102BFFF7C8FA41EC190B9FED340B53EC95
:100D1000102BFFF767FB41EC180BFFF7D5FB80B2F8
:100D200030490860244890ED000A1348D0ED000ACD
:100D3000204890ED001A00EE810A10EE101A0846C5
:100D4000FFF7DBFB41EC1D0BB0EE4D0AF0EE6D0A38
:100D500002F0CAFBB0EE40BAF0EE60BA1B4890ED6C
:100D6000000A10EE100A3FE0A0E00000000800407A
:100D70003800002075C84D3B240000203C000020B6
:100D80004400002040000020F84000081C00002023
:100D9000DC40000820000020600000201800002037
:100DA00098000020E4400008E8400008B800002057
:100DB000D8400008FC400008D44000080000006053
:100DC0005C55E53F14000020500000203400002056
:100DD00028000020000000000000F03F000000009C
:100DE0000040BF40C4000020FFF787FB41EC1C0B14
:100DF00053EC1B2BFFF7F6FA41EC1A0B1FED0B0B14
:100E000053EC102BFFF747FA41EC190B1FED0D0BBC
:100E100053EC102BFFF7E6FA41EC180BFFF754FBED
:100E200080B234494860344890ED000A3348D0ED30
:100E3000000A334890ED001A00EE810A10EE101AF5
:100E40000846FFF75AFB41EC180BB0EE480AF0EEEB
:100E5000680A02F049FBB0EE40CAF0EE60CA2948C9
:100E600090ED000A10EE100AFFF747FB41EC1D0B56
:100E700053EC1C2BFFF7B6FA41EC1B0B1FED2B0BB1
:100E800053EC102BFFF707FA41EC1A0B1FED2D0B5B
:100E900053EC102BFFF7A6FA41EC190BFFF714FBEC
:100EA00080B214498860084603F0DAF8164800F06A
:100EB00014FD16490988884206D9134800F00DFD33
:100EC00012490988401A09E000BF0F48C06A0F495B
:100ED0000988441A0C4800F000FD20440C490880A1
:100EE00000BF02200B49486000BF02B0BDEC108B70
:100EF00010BD0000C4000020D840000824000020DD
:100F0000FC400008340000200008004038000020A9
:100F10003A00002000000240704700BFFEE70000DA
:100F20002DE9F04105460C460026606800B100BF7F
:100F30001948854209D14FF0A04000F050F807460B
:100F4000164800F04CF838430BE0154800F047F81D
:100F50000746144800F043F80743134800F03FF8F1
:100F60003843A8B9606860B1D4E900010843A168BA
:100F70000843E1680843A9680C4A11400843A86087
:100F800007E0A8680949084021680843A86000E014
:100F900001263046BDE8F0810003005000010050FA
:100FA000000400500005005000060050E030C0FF73
:100FB00070B505460C460026284600F010F858B9D2
:100FC000D4E900010843A1680843E9684CF218021B
:100FD00091430843E86000E00126304670BD0146B9
:100FE000886800F00100704770B505460C46002681
:100FF000606800B100BF2846FFF7F1FF20BB6068C2
:1010000070B1A16820680843E1680843216908437A
:1010100061690843E9680E4A11400843E8600BE043
:10102000E168206808432169084361690843E96869
:10103000074A11400843E8606068296B21F00F01FE
:101040000143296300BF00E00126304670BD000067
:101050001CC0F0FF70B500F13004C1F3012504EBB2
:1010600085031C6801F01F061F25B540AC4301F045
:101070001F06C2F38465B5402C431C6070BD70B57B
:1010800000F11404C1F3406504EB85031C68C1F34F
:1010900004560725B540AC43C1F3045502FA05F5E3
:1010A0002C431C6070BD000030B5D0F8B030C1F3E7
:1010B0001204A34302F01805034CEC400C402343F8
:1010C000C0F8B03030BD0000FFFF0700826822F09A
:1010D000E0720A438260704708B50549896C014394
:1010E000034A91641146896C0140009100BF08BD1C
:1010F0000010024008B50549C96C0143034AD16498
:101100001146C96C0140009100BF08BD00100240AB
:1011100008B50549C96C0143034AD1641146C96C3D
:101120000140009100BF08BD0010024008B505490C
:10113000C96C0143034AD1641146C96C0140009156
:1011400000BF08BD0010024008B50549C96C014345
:10115000034AD1641146C96C0140009100BF08BD2B
:101160000010024008B50549896D0143034A9165A5
:101170001146896D0140009100BF08BD001002407A
:1011800030B50F2404EA117500F1080404EB85035F
:101190001C686FF30B0414431C6030BD10B5C26BA8
:1011A00001F010044FF48073A3409A43C26310BD52
:1011B00010B5026801F010040223A3409A430260B4
:1011C00010BD10B5026801F010040123A3401A43BA
:1011D000026010BDF0B503460024906800B100BF66
:1011E00008461D6800F010070126BE40354000F09B
:1011F00010070126BE40B54201D1012500E00025BF
:10120000002D5AD19068D0B39068C02825D11868B5
:1012100001F01006C025B540A84301F010069568FE
:10122000B54028431860186E01F0100640F60F759F
:10123000B540A8431568AD085668B60845EA0625C6
:1012400001F01006B5402843186603F15800C1F3B9
:10125000C016D56840F826501EE0186801F0100648
:1012600040F6FC75B540A843966815683543D668C6
:10127000354301F01006B540284318600CE0FFE745
:10128000186801F01006FC25B540A84301F01006CF
:101290001568B54028431860D86B01F01006072583
:1012A000B540A843D2E9045635439669354301F069
:1012B0001006B5402843D86300E001242046F0BD65
:1012C00030B5C36B01F010054FF40074AC40A3437C
:1012D00001F0100402FA04F42343C36330BD00009C
:1012E000024909688143014A1160704704040140C2
:1012F000024909688143014A116070472404014092
:10130000024909688143014A1160704700040140A5
:10131000024909688143014A116070472004014075
:10132000024909680143014A116070470404014001
:10133000024909680143014A1160704724040140D1
:10134000024909680143014A116070470C040140D9
:10135000024909680143014A116070472C040140A9
:10136000024909680143014A1160704700040140C5
:10137000024909680143014A116070472004014095
:10138000024909680143014A11607047080401409D
:10139000024909680143014A11607047280401406D
:1013A00070B504460025207A00287BD020680028EC
:1013B0004BD0607A20B1012809D0022815D10DE068
:1013C0002068FFF78DFF2068FFF7CAFF0FE0206855
:1013D000FFF796FF2068FFF7A3FF08E02068FFF7FC
:1013E000BFFF2068FFF79CFF01E0012500BF00BFA1
:1013F000A07A50B3A07A012804D002280DD0032887
:101400001FD117E020684149096881433F4A1160B4
:1014100000BF2068FFF7B4FF16E020683B49091FB2
:1014200009688143394A121F116000BF2068FFF725
:1014300087FF09E02068FFF7A3FF2068FFF780FF20
:1014400002E045F0020500BF00BF606800285BD0E5
:10145000607A20B1012809D0022815D10DE060681A
:10146000FFF746FF6068FFF783FF10E06068FFF753
:101470004FFF6068FFF75CFF09E06068FFF778FFE7
:101480006068FFF755FF02E045F0040500BF00BFAC
:10149000A07A60B3A07A012805D0022810D00328D2
:1014A00022D11AE024E0606818492031096881439C
:1014B000164A2032116000BF6068FFF769FF16E02E
:1014C000606812491C3109688143104A1C3211605E
:1014D00000BF6068FFF73CFF09E06068FFF758FF56
:1014E0006068FFF735FF02E045F0050500BF0BE03F
:1014F0002068FFF705FF2068FFF7F2FE6068FFF73E
:1015000007FF6068FFF7F4FE284670BD0C04014039
:10151000F0B502460B46186890FAA0F0B0FA80F4D5
:1015200087E00120A0401D6805EA000100297FD066
:101530005868012802D0586802281DD1986895681B
:1015400091FAA1F6B6FA86F677000326BE40B543B7
:1015500091FAA1F6B6FA86F6760000FA06F6354359
:10156000956000BFDD6818685668864300FB05F784
:101570003E43566000BF00BF1869D56891FAA1F6D6
:10158000B6FA86F677000326BE40B54391FAA1F677
:10159000B6FA86F6760000FA06F63543D56000BF47
:1015A000586802282DD1FF2914D85869156A91FA74
:1015B000A1F6B6FA86F6B7000F26BE40B54391FAFB
:1015C000A1F6B6FA86F6B60000FA06F635431562BD
:1015D00000BF16E05869556A0E0A96FAA6F6B6FAE2
:1015E00086F6B7000F26BE40B5430E0A96FAA6F659
:1015F000B6FA86F6B60000FA06F63543556200BF25
:1016000000BF5868156891FAA1F6B6FA86F6770019
:101610000326BE40B54391FAA1F6B6FA86F67600E7
:1016200000FA06F63543156000BF00E000E000BF99
:10163000641C1868E04000287FF473AFF0BD81623D
:101640007047816170474FF47A71B0FBF1F2521E1E
:101650004FF0E0235A6100229A6105221A6100BF0F
:10166000704700002DE9F84F04460D460120009018
:1016700000BF206800F00100002853D12969A86844
:101680000843696908432168284A114008432060DB
:10169000E868616821F440510143616000BFA869B6
:1016A000A16821F440710143A16000BF4FF4406084
:1016B00000F042F88146B9F1000F2AD0686840B3C3
:1016C00000200090CA46D5E900B606B31FFA8BF099
:1016D000174931F810C06246002350461946FEF7FC
:1016E00097FD4FF480734FF0000CA0FB032E01FB1D
:1016F00003E100FB0C107108571840EB0C01324657
:1017000063463846FEF784FD0A490840E06000BFA2
:1017100000BF2868E16A21F00F0182B21143E16243
:1017200000BF00BF0098BDE8F88F0000F3E9FFEFAD
:10173000F6410008FFFF0F002DE9F04104460025A7
:1017400000BF164800682040C8B1B0F5806F06D0D1
:10175000B0F5006F07D0B0F5406F0FD108E001F091
:10176000EFFB054615E000F01DF800B10C4D10E050
:1017700000F020F808B14FF400450AE000BF01F086
:10178000DFFB074601F0B6FB064601F0C5FB054648
:1017900000BF00BF2846BDE8F0810000881002406D
:1017A0000024F40002480068C0F380207047000065
:1017B0000010024002480068C0F34000704700007B
:1017C000901002400248C068C0F306207047000035
:1017D000001002400349896821F0F0010143014AE9
:1017E0009160704700100240014908607047000096
:1017F0004800002010B503460A460021147B21460C
:101800009068014321F48060546840EA040121F4A7
:101810000060146840EA040121F48050D48940EA51
:10182000040121F40050146940EA040121F48040CD
:10183000D46A40EA040121F40040D46A40EA040179
:101840001948834205D01948834202D01848834280
:1018500009D121F47020546940EA040121F080503C
:10186000946940EA04011048834205D00F4883423E
:1018700002D00F48834213D121F47000546A40EA29
:10188000040121F08070D46940EA040121F0007065
:10189000146A40EA040121F00050946A40EA04010D
:1018A0005964002010BD0000002C014000340140AC
:1018B00000500140026A0A4302627047016821F049
:1018C000800101607047816821F08001816070476C
:1018D000016841F00101016070470146486A7047A4
:1018E000F0B503461446012901D1002525E004295D
:1018F00001D1012521E0102901D102251DE0402957
:1019000001D1032519E0B1F5807F01D1042514E050
:10191000B1F5806F01D105250FE0B1F5805F01D1F0
:1019200006250AE0B1F5804F01D1072505E0B1F5A4
:10193000803F01D1082500E009252846084D2E5C8E
:1019400003F1180572191568064E375C0326BE4070
:10195000B543260C034F3F5CBE4035431560F0BDD8
:10196000C4410008D8410008F0B5034614460129D7
:1019700001D1002525E0042901D1012521E010290C
:1019800001D102251DE0402901D1032519E0B1F55F
:10199000807F01D1042514E0B1F5806F01D10525C8
:1019A0000FE0B1F5805F01D106250AE0B1F5804F67
:1019B00001D1072505E0B1F5803F01D1082500E000
:1019C00009252846084D2E5C03F118057219156883
:1019D000064E375CF026BE40B543260C034F3F5CF5
:1019E000BE4035431560F0BDC4410008D841000831
:1019F00070B5012901D1002425E0042901D1012479
:101A000021E0102901D102241DE0402901D1032445
:101A100019E0B1F5807F01D1042414E0B1F5806FA5
:101A200001D105240FE0B1F5805F01D106240AE061
:101A3000B1F5804F01D1072405E0B1F5803F01D118
:101A4000082400E009242346046A064DEE5C0A25BA
:101A5000B540AC43034DED5C02FA05F52C4304623E
:101A600070BD0000E2410008F0B5034614460129AC
:101A700001D1002525E0042901D1012521E010290B
:101A800001D102251DE0402901D1032519E0B1F55E
:101A9000807F01D1042514E0B1F5806F01D10525C7
:101AA0000FE0B1F5805F01D106250AE0B1F5804F66
:101AB00001D1072505E0B1F5803F01D1082500E0FF
:101AC00009252846084D2E5C03F118057219156882
:101AD000064E375C0C26BE40B543260C034F3F5CD8
:101AE000BE4035431560F0BDC4410008D841000830
:101AF00010B5024613683148824211D0B2F1804FCE
:101B00000ED02F4882420BD02E48824208D02E4859
:101B1000824205D02D48824202D02D48824204D113
:101B200023F070004C6840EA0403244882421AD033
:101B3000B2F1804F17D02248824214D0214882420D
:101B400011D0214882420ED0204882420BD0214839
:101B5000824208D02048824205D02048824202D0EA
:101B60001B48824204D123F44070CC6840EA04034D
:101B700013608868D06200BF0888906200BF0F4879
:101B800082420ED0114882420BD01248824208D0C5
:101B90001148824205D01148824202D00C4882424C
:101BA00003D10869106300BF00BF00BF506940F057
:101BB0000100506100BF002010BD0000002C01405A
:101BC0000004004000080040000C004000340140C8
:101BD00000500140004001400044014000480140E5
:101BE00070B50246012901D1002425E0042901D164
:101BF000012421E0102901D102241DE0402901D156
:101C0000032419E0B1F5807F01D1042414E0B1F57B
:101C1000806F01D105240FE0B1F5805F01D106246A
:101C20000AE0B1F5804F01D1072405E0B1F5803F0E
:101C300001D1082400E009242346064CE55C02F1AA
:101C4000180428190468044DEE5C0425B5402C43A3
:101C5000046070BDC4410008CE41000870B5024662
:101C6000012901D1002425E0042901D1012421E02A
:101C7000102901D102241DE0402901D1032419E0DB
:101C8000B1F5807F01D1042414E0B1F5806F01D15A
:101C900005240FE0B1F5805F01D106240AE0B1F51B
:101CA000804F01D1072405E0B1F5803F01D1082420
:101CB00000E009242346064CE55C02F118042819CB
:101CC0000468044DEE5C0825B5402C43046070BDEB
:101CD000C4410008CE4100082DE9F04106460C46FB
:101CE00015460127B4F5805F21D007DC012C0CD00C
:101CF000102C10D0B4F5807F2BD112E0B4F5803FCA
:101D00001BD0B4F5801F24D11DE02946304600F0D9
:101D1000FFFE07461EE02946304600F051FF074609
:101D200018E02946304600F0A7FF074612E0294692
:101D3000304600F0F9FF07460CE02946304601F036
:101D400049F8074606E02946304601F08BF8074679
:101D500000E000BF00BF3846BDE8F08181637047F6
:101D60008268024B1A400A4382607047F8BFFEFF48
:101D7000416270474268024B1A400A434260704712
:101D80008FFFFFFD08B501464FF0E0221269009277
:101D900000BF0846421C02B1401C06E04FF0E022A2
:101DA000126902F4803202B1401E0028F6D108BD4B
:101DB000002000BF0B49496AC9B20846302805D146
:101DC00020214FF09042916100BF05E020214FF0AB
:101DD0009042916200BF00BF00BF0249886200BF0D
:101DE000704700000080004070B594B00020119052
:101DF0001290139018210BA8FEF742FA00200790CA
:101E0000089009900A90182101A8FEF739FA4FF4BA
:101E10000050FFF77DF90420FFF77AF90120FFF762
:101E200077F90220FFF774F9012001900320029056
:101E30000020059001A9D848FFF76AFB0220019015
:101E4000032002900020059001A9D348FFF760FB12
:101E500004200190032002900020059001A9CE48A3
:101E6000FFF756FB0120019003200290002005900F
:101E700001A94FF09040FFF74BFB02200190032097
:101E800002900020059001A94FF09040FFF740FB21
:101E900002200190032002900020059001A9BF4874
:101EA000FFF736FBBE49002005220D464D40AD0A26
:101EB000EB00BC4D05EB800555F8235025F0FF05E0
:101EC0001543B84E06EB800646F8235000BF08467F
:101ED00000210A460346B44D6D5C5D5944F210067C
:101EE000B5431543B04E765C9D5100BF00BF00BFA7
:101EF000AD4D6D5C5D5925F440551543AA4E765C99
:101F00009D5100BF202200BFA74D6D5C5D5925F09B
:101F100020051543A44E765C9D5100BF0A4600BFC4
:101F2000A14D6D5C5D5925F0400515439E4E765CD4
:101F30009D5100BF802200BF9B4D6D5C5D5925F017
:101F400080051543984E765C9D5100BF821500BFF9
:101F5000954D6D5C5D5925F440751543924E765C48
:101F60009D5100BFC21400BF8F4D6D5C5D5925F4BB
:101F7000406515438C4E765C9D5100BF002011904A
:101F80001290139011A94FF0A040FFF711F84FF4F1
:101F9000A8600B9007200C9000200D900E9003205D
:101FA0000F90002010900BA94FF0A040FFF71CF8F5
:101FB00000207E4909686FF30D0101434FF0A042F4
:101FC000C2F8C0101146096921F4803108B101221C
:101FD00000E0002241EA02414FF0A042116100BF3F
:101FE00000201146096940F20342914301434FF03A
:101FF000A042116100BF00BF104680686C490840D4
:102000001146886000BF00BF0846806869490840E3
:1020100040F080501146886000BF674800686749FB
:10202000B0FBF1F000EB800040000A21B0FBF1F4BE
:1020300000E0641E002CFCD14FF4403007900020DB
:10204000089007A95E48FEF76BFF4FF480604FF0E1
:10205000A041C96821F4406101434FF0A042D16022
:1020600000BF584A06214FF0A040FEF7F3FF0122BF
:1020700054494FF0A040FFF702F87F2251494FF03A
:10208000A040FFF711F8504A0C214FF0A040FEF796
:10209000E1FF01224C494FF0A040FEF7F0FF7F2204
:1020A00049494FF0A040FEF7FFFF484A12214FF088
:1020B000A040FEF7CFFF012244494FF0A040FEF7B9
:1020C000DEFF7F2241494FF0A040FEF7EDFF404A7E
:1020D00018214FF0A040FEF7BDFF01223C494FF010
:1020E000A040FEF7CCFF7F2239494FF0A040FEF719
:1020F000DBFF384A4FF480714FF0A040FEF7AAFF93
:10210000012234494FF0A040FEF7B9FF7F22314948
:102110004FF0A040FEF7C8FF2F4A4FF483714FF0F5
:10212000A040FEF797FF01222B494FF0A040FEF799
:10213000A6FF7F2228494FF0A040FEF7B5FF274AAF
:102140004FF486714FF0A040FEF784FF012223492F
:102150004FF0A040FEF793FF7F2220494FF0A040B0
:10216000FEF7A2FF4FF480011548FEF7AFFF1C4AAF
:102170004FF489714FF0A040FEF76CFF012218491F
:102180004FF0A040FEF77BFF7F2215494FF0A040A3
:10219000FEF78AFF14B070BD000800480004004834
:1021A000000002400008024000410008C00000504A
:1021B000C0FFFF5FC0FFFF7F48000020400D03000D
:1021C00000030050020030048000501D4000201920
:1021D0000400600800018021000021C3000084CBBE
:1021E0000010603200B58DB01C2106A8FEF748F83B
:1021F00018216846FEF744F84FF48030FEF796FF4A
:102200000120FEF793FF1020009003200190002092
:10221000049069464FF09040FFF77AF92020009033
:10222000032001900020049069464FF09040FFF792
:102230006FF9002216491748FFF742F80020069070
:10224000079008900A900B900C9006AA104911482C
:10225000FEF7C0FF0E490F48FEF7AAFF0C490D48D4
:10226000FEF79CFF00220C490A48FFF729F80020DE
:102270000B9006AA08490748FEF7ACFF0649054837
:10228000FEF796FF04490348FEF788FF0DB000BD36
:102290000100110200080050F20042352DE9F04122
:1022A0000420FEF719FF0120FEF716FF0B212B4B30
:1022B0001B68C3F30220002425460346C3F1070C24
:1022C000BCF1040F02D94FF0040C01E0C3F1070C7C
:1022D000674603F1040CBCF1070F02D24FF0000C6B
:1022E00001E0A3F1030C66464FF0010C0CFA07FC69
:1022F000ACF1010C0CEA040C0CFA06FC4FF00108DE
:1023000008FA06F8A8F1010808EA05084CEA0802EC
:1023100000BF002904DB1007030E1148435407E0F7
:102320001007040E0D480C3001F00F031B1FC4549E
:1023300000BF0B2000280DDB00BF00BF00F01F0214
:10234000012191404209920002F1E022C2F80011FD
:1023500000BF00BF00BFBDE8F08100000CED00E051
:1023600000E400E010B58AB00020079008900990C2
:10237000182101A8FDF784FF2020FEF7BBFE0420F2
:10238000FEF7B8FE0120FEF7B5FE0220FEF7B2FE12
:102390004FF400614FF09040FFF751F94FF4806126
:1023A0005148FFF74CF94FF400614F48FFF747F9E8
:1023B0004FF480514C48FFF742F940200190002033
:1023C0000290059001A94FF09040FFF7A1F84FF45B
:1023D00000600190012002900020039001200490F1
:1023E0000020059001A94FF09040FFF791F84FF4BD
:1023F00080600190012002900020039004900590DD
:1024000001A93948FFF784F84FF4006001900120DA
:102410000290002003900490059001A93248FFF734
:1024200077F84FF480500190012002900020039033
:102430000490059001A92C48FFF76AF802212B4867
:102440002B4A00F0030352F8232022EA1042030C27
:1024500093FAA3F3B3FA83F303F01F0301FA03F330
:102460001A43234B00F0030443F8242000BF10203C
:10247000079001208DF8240000208DF82500012010
:102480008DF8260007A8FEF78BFF10200021164AC2
:10249000D26890FAA0F3B3FA83F35C000323A3405D
:1024A0009A4390FAA0F3B3FA83F35B0001FA03F3C3
:1024B0001A430D4BDA6000BF00BF1A46126890FA4B
:1024C000A0F3B3FA83F35C000323A3409A4390FA8A
:1024D000A0F3B3FA83F35B0001FA03F31A43024B50
:1024E0001A6000BF0AB010BD0008004801000F00CC
:1024F000080001402DE9F0418EB01C2107A8FDF72E
:10250000BFFE182101A8FDF7BBFE01206649C96D79
:102510000143654AD1651146C96D0140009100BF74
:1025200000BF00BF1146C96C0143D1641146C96C9C
:102530000140009100BF00BF0420019002200290E2
:1025400000200390049005900C20069001A94FF004
:102550009040FEF7DDFF082001900220029000204D
:102560000390049005900C20069001A94FF0904034
:10257000FEF7CEFF5B214D4B1B68C3F30220022404
:1025800000250346C3F1070CBCF1040F02D94FF03C
:10259000040C01E0C3F1070C674603F1040CBCF125
:1025A000070F02D24FF0000C01E0A3F1030C6646C6
:1025B0004FF0010C0CFA07FCACF1010C0CEA040C16
:1025C0000CFA06FC4FF0010808FA06F8A8F1010819
:1025D00008EA05084CEA080200BF002904DB1007DE
:1025E000030E3348435407E01007040E2F480C3005
:1025F00001F00F031B1FC45400BF5B2000280DDB3C
:1026000000BF00BF00F01F0201219140420992006B
:1026100002F1E022C2F8001100BF00BF00BF00209D
:1026200007904FF4E1300890002009900A904FF491
:1026300080600B900C200C9000200D9007A91D4885
:10264000FFF710F800201B49896860F35F71194A91
:10265000916000BF00BF1146896821F0606141EAC6
:102660004061916000BF00BF1046006820F000503C
:102670001146086000BF00BF0846006840F0010036
:10268000086000BF00BF00BF0A48C069C0F34050E7
:102690000028F8D000BF0748C069C0F38050002868
:1026A000F1D00EB0BDE8F081001002400CED00E06A
:1026B00000E400E00080004000B5A1B014211CA897
:1026C000FDF7DEFD202114A8FDF7DAFD302108A872
:1026D000FDF7D6FD182102A8FDF7D2FD4FF40060EA
:1026E0006349096E0143624A11661146096E014051
:1026F000019100BF00BF0020ADF8700040201D9088
:102700004FF47A501E9000201F9020901CA9594829
:10271000FFF7EEF95748FFF7D1F800215548FFF7CA
:102720001FFB4FF47A501E9001215248FFF796FA92
:102730006020149000201590169017901890199012
:102740001A901B9014AA01214A48FFF7C5FA0121EB
:102750004848FFF745FA4FF47A501E90102145483B
:10276000FFF77CFA002015901690179014AA1021FC
:102770004048FFF7B1FA10213E48FFF731FA4FF415
:102780007A501E904FF480713A48FFF767FA0020A4
:1027900015901690179014AA4FF480713548FFF7E2
:1027A0009BFA4FF480713348FFF71AFA2021314821
:1027B000FFF7E0FA4FF400102E49496821F4700148
:1027C00001432C4A516000BF1046FFF77CF80020FF
:1027D000089009900A908DF82C00ADF82E004FF467
:1027E00000500C9000200D900E900F904FF0007054
:1027F00010900020119012904FF48040139008A97F
:102800001C48FEF7F7FF0120FEF79EFC4FF4807096
:10281000029002200390002004900590069006206C
:10282000079002A94FF09040FEF772FE4FF400703F
:10283000029002200390002004900590069006204C
:10284000079002A94FF09040FEF762FE4FF48060BF
:10285000029002200390002004900590069006202C
:10286000079002A94FF09040FEF752FE21B000BD44
:1028700000100240002C014000B58BB0142106A8C6
:10288000FDF7FEFC18216846FDF7FAFC0120FEF773
:1028900069FC0120FEF758FC0220FEF755FC4FF4BE
:1028A00000400090022001900020029003900490CC
:1028B0000120059069464FF09040FEF729FE082060
:1028C00000900220019000200290039004900120CB
:1028D000059069462848FEF71BFE0020ADF8180059
:1028E000079040F2CF7008900020099006A94FF0A1
:1028F0008040FFF7FDF84FF08040FEF7DFFF01203A
:10290000810789681D4A114001438207916000BF19
:10291000020401218007FEF7E3FF0022012188075E
:10292000FFF7A2F8002201218807FFF71DF8002217
:1029300001218807FFF75CF84FF4803210218806E8
:10294000FEF7CEFF002210218806FFF78DF8002247
:1029500010218806FFF708F8002210218806FFF7EB
:1029600047F800214FF08040FFF704FA4FF0804015
:10297000FEF7A9FF0BB000BD00040048F8FFFEFF02
:102980002DE9F04186B0142101A8FDF779FC022061
:10299000FEF7E8FB1D21444B1B68C3F30220012412
:1029A00000250346C3F1070CBCF1040F02D94FF018
:1029B000040C01E0C3F1070C674603F1040CBCF101
:1029C000070F02D24FF0000C01E0A3F1030C6646A2
:1029D0004FF0010C0CFA07FCACF1010C0CEA040CF2
:1029E0000CFA06FC4FF0010808FA06F8A8F10108F5
:1029F00008EA05084CEA080200BF002904DB1007BA
:102A0000030E2A48435407E01007040E26480C30F2
:102A100001F00F031B1FC45400BF1D2000280DDB55
:102A200000BF00BF00F01F02012191404209920047
:102A300002F1E022C2F8001100BF00BF00BF002079
:102A4000ADF804000290092003900020049001A931
:102A50001748FFF74DF81648FEF730FF00201449DD
:102A60008968144A11400143114A916000BF07214F
:102A70001046FFF775F900BF0D48C06820F0400010
:102A80000B49C86000BF00BF0846C06820F4804002
:102A9000C86000BF00210648FFF76CF90448FEF744
:102AA00012FF06B0BDE8F0810CED00E000E400E0AC
:102AB000000400408FFFCFFF00B585B014216846A9
:102AC000FDF7DEFB0420FEF74DFB0020ADF8000013
:102AD00001904FF6FF70029000200390694609486C
:102AE000FFF706F80748FEF7E9FE00210548FFF763
:102AF00037F900210348FFF73DF90248FEF7E3FEEE
:102B000005B000BD0008004000BFFEE770470000B0
:102B100070B50246106A20F001001062136A556811
:102B2000946924F003041F4E04EA06000E6840EA8C
:102B3000060423F002000E6940EA060323F00100B8
:102B40004E6840EA0603184882420ED01748824277
:102B50000BD01748824208D01648824205D016484A
:102B6000824202D01548824213D123F008004E69F8
:102B700040EA860323F004008E6840EA860325F4C9
:102B800080708E6940EA060525F40070CE6940EA3F
:102B9000460555609461C868506300BF1362002009
:102BA00070BD00008FFFFEFF002C0140003401408B
:102BB00000400140004401400048014000500140F5
:102BC0002DE9F04104460D46206A20F010002062F5
:102BD000266AD4F80480A76927F440771F48384054
:102BE000296840EA012726F02000296940EA0116F9
:102BF00026F01000696840EA0116194884420ED098
:102C0000184884420BD01848844208D017488442A0
:102C100005D01748844202D01648844213D126F0CA
:102C20008000696940EA811626F04000A96840EA00
:102C3000811628F48060A96940EA810828F40060C0
:102C4000E96940EAC108C4F80480A7612046E96840
:102C5000FFF784F826620020BDE8F081FF8FFFFEB9
:102C6000002C01400034014000400140004401407C
:102C7000004801400050014070B50246106A20F43F
:102C800080701062136A5568D46924F003041F4EE3
:102C900004EA06000E6840EA060423F400700E6998
:102CA00040EA062323F480704E6840EA0623184861
:102CB00082420ED0174882420BD01748824208D079
:102CC0001648824205D01648824202D015488242F8
:102CD00013D123F400604E6940EA862323F4806018
:102CE0008E6840EA862325F480508E6940EA0615F6
:102CF00025F40050CE6940EA46155560D461C86895
:102D0000D06300BF1362002070BD00008FFFFEFF84
:102D1000002C0140003401400040014000440140CB
:102D2000004801400050014070B50246106A20F48E
:102D300080501062136A5568D46924F440741E48A8
:102D400020400E6840EA062423F400500E6940EA51
:102D5000063323F480504E6840EA06331748824217
:102D60000ED0174882420BD01648824208D016482F
:102D7000824205D01548824202D01548824213D1C2
:102D800023F400404E6940EA863323F480408E6885
:102D900040EA863325F480408E6940EA861525F4A2
:102DA0000040CE6940EAC6155560D461C868106419
:102DB00000BF1362002070BDFF8FFFFE002C01409A
:102DC00000340140004001400044014000480140FF
:102DD0000050014030B50246106A20F48030106285
:102DE000136A146D184D04EA05000D6840EA0504E5
:102DF00023F400300D8A40EA054323F480308D88A7
:102E000040EA0543114882420ED0114882420BD05D
:102E10001048824208D01048824205D00F488242B2
:102E200002D00F48824206D1506820F480308D696C
:102E300040EA052050601465C868956C906400BF36
:102E40001362002030BD00008FFFFEFF002C014008
:102E5000003401400040014000440140004801406E
:102E60000050014030B50246106A20F48010106214
:102E7000136A146D174820400D6840EA052423F4B6
:102E800000100D8A40EA055323F480108D8840EA33
:102E90000553114882420ED0104882420BD0104890
:102EA000824208D00F48824205D00F48824202D0A9
:102EB0000E48824206D1506820F480208D6940EA95
:102EC000852050601465C868D06400BF136200207C
:102ED00030BD0000FF8FFFFE002C01400034014098
:102EE00000400140004401400048014000500140C2
:102EF00070470000014600BF0548806800F0F00000
:102F00000009044A105C00F01F0221FA02F0704729
:102F1000001002400E420008014600BF06488068CB
:102F200000F4E060054A02EB1020007800F01F0278
:102F300021FA02F070470000001002401E42000813
:102F400010B500BF0A49896801F00C01042904D0BA
:102F5000082904D00C2907D103E0064806E00648FA
:102F600004E000F00BF801E0024800BF00BF10BD14
:102F7000001002400024F40000366E0170B500BF5E
:102F80001348C06800F003000546022D02D0032D4F
:102F900004D101E00F4C03E00F4C01E00D4C00BFE9
:102FA00000BFFEF70FFC60430949C96801F0F0015A
:102FB000012202EB1111B0FBF1F10548C06800F0ED
:102FC000C06002EB50604000B1FBF0F070BD00004B
:102FD000001002400024F40000366E01704700002B
:102FE00000BF0121016000BF00BF81680B4A114092
:102FF000491C816000BF00BF00BF016801F00101F2
:103000000029F9D000BF8168044A1140091D816080
:1030100000BF00BF0121016000BF7047C0FFFF7FFC
:103020007047000070B504205749096821F00F016E
:103030000143554A116000BF00BF00BF52480068FD
:1030400000F00F000428F8D100BF5048006820F4B9
:1030500080704E498039C1F8800000BF00BF4C48E5
:10306000006840F480304A49086000BF00BF00BFDC
:1030700047480068C0F340400028F8D003202021D2
:103080002822002340EA010444EA02241C43404D64
:10309000ED68404E35402C433D4DEC6000BF00BF15
:1030A0002846C06840F080702946C86000BF00BF55
:1030B0000846006840F08070086000BF00BF00BF95
:1030C00033480068C0F340600028F8D0032030493E
:1030D000896821F0030101432D4A916000BF8020DF
:1030E000FEF778FB00BF00BF2948806800F00C00A5
:1030F0000C28F8D12848006840F080702649086004
:103100002648006840F0010024490860002048601B
:1031100000BF224840686428FBD30020FEF75AFB1A
:103120004FF480601A49896821F4E0610143184A2C
:10313000916000BFC0001146896821F460510143CD
:10314000916000BF1648FEF77EFA1548FEF74CFB6B
:1031500000200F498831096821F4406101430C4A7D
:10316000C2F8881000BF0F48094988310968030C6C
:1031700003229A409143C2B2030C9A401143044A7D
:10318000C2F8881000BF70BD00200240807000406F
:10319000001002400C80FFF9FCED00E0001000E0A0
:1031A0000068890902001C000548006840F47000AE
:1031B000034908604FF0006001498039086070479A
:1031C00088ED00E010B54348C06800EE100AB8EE84
:1031D000400ADFED410A80EE201A404880ED001AD7
:1031E0003C48006900EE100AB8EE400ADFED3C0AE8
:1031F00080EE801A9FED3B0A31EE400A3A4880ED9E
:10320000000A3A48008840F6B83148433149896994
:10321000B0FBF1F0364908602E4840690968484320
:1032200040F6B831B0FBF1F03049891E0988401AE8
:1032300000EB800001012D48203000882B4A921EAF
:103240001288801A91FBF0F01E302A49086021484C
:10325000C06900EE100AB8EE400ADFED270A30EE32
:10326000600ADFED260A80EE201A254880ED001A5C
:103270002448D0ED000A9FED241A9FED240A00EEA9
:10328000810ABCEEC00A10EE102A21492148FDF740
:1032900077FF2148D0ED000A9FED201A9FED1B0A11
:1032A00000EE810ABCEEC00A10EE102A1C49194833
:1032B000FDF766FF06E000BF6FF0010019490861E5
:1032C00000BF00BF00BF1748006900F001000028E0
:1032D000F1D110BD980000207B94814200000020B5
:1032E000005D9646666696400C000020AA75FF1F9A
:1032F000040000201000002000000045AE47A3415C
:1033000020000020140000201F159B4400A0E8446A
:10331000F2004235000800501C000020666646415D
:10332000010011020004004038B50446002000905E
:103330002046FDF797FA00902046FFF751FE4FF424
:1033400040010248FDF7C2FE38BD000000030050F6
:103350002DE9F04108262F4D00204FF0A041844672
:10336000BCF1000F02D101F140040DE0B1F1A04F1A
:1033700003D0DFF8A480414502D1DFF8A08001E04E
:10338000DFF89C8008F10C042246264B00272946D2
:10339000102F08D1244C245C0C44E260224C245CA5
:1033A0000C44A36007E0204C245C0C44A2601E4C3B
:1033B000245C0C44E36000BF164800210822034649
:1033C000194C645C1C4464686FF30F041443164D7D
:1033D0006D5C1D446C6000BF00BF0246124B5B5C1D
:1033E000D35843F00203104C645C135100BF00BF7C
:1033F00001200849486000BF0846002102460A4BE8
:103400005B5CD35843F00103074C645C135100BF6D
:10341000BDE8F081000002400001005000030050B0
:1034200000070050980000205241000800BF08200B
:103430000549086200BF00BF0846006840F0200050
:10344000086000BF704700000080004010B50120F8
:103450000649086300BF0846FEF73AFA00BF6FF05E
:1034600001000249086100BF10BD0000002C0140AE
:1034700010B54FF08040FEF72BFA10BD10B508488C
:10348000FEF726FA00BF6FF001000549086100BF92
:1034900000BF0846C06840F00100C86000BF10BD12
:1034A0000004004010B50248FEF712FA10BD0000FB
:1034B0000008004000BFFEE703B4019841000098F7
:1034C00050EAC12018BF04204A0D18BF40F0010087
:1034D00040F2FF72B2EB515F08BF40F002000128DA
:1034E00008BF052002B0704710B52F499FED2C1B77
:1034F0002DED020B84B0059820F000408842DCBF1F
:1035000000209DED040B32DD2849884209D1049842
:1035100040B94FF0010000F06FFC00F03DFC06B038
:1035200010BD05DB9DED040B00F02AFC06B010BDBC
:1035300068469DED040B00F03BF810F0030011D03D
:10354000012818D09DED021B9DED000B02281AD01A
:1035500000F04AFA51EC100B81F0004106B041EC4A
:10356000100B10BD9DED021B9DED000B012000F026
:103570006FFB06B010BD9DED021B9DED000B00F032
:1035800033FA06B010BD012000F062FB51EC100BC5
:1035900081F0004106B041EC100B10BD00000000AE
:1035A0000000000000000000FB21E93F0000F07F68
:1035B0002DE9F14F04462DED020B2DED088B8AB05D
:1035C0009FEDE70B80ED020B139EE74826F00045C8
:1035D00085420ADC9DED120B002084ED000B0AB041
:1035E000BDEC088B03B0BDE8F08FE0489FEDE0AB89
:1035F0009FEDE1BBA84247DDE14F9FEDE39B9FEDCF
:10360000E48B9DED120B53EC1A2B51EC100B002E9A
:103610001CDDFCF7E1FE41EC100BBD4208D053EC81
:103620001B2B51EC100BFCF7D7FEC4E900010BE09B
:1036300053EC192B51EC100BFCF7CEFE53EC182B6E
:10364000FCF7CAFEC4E900010120C8E7FCF723FE2D
:1036500041EC100BBD4208D053EC1B2B51EC100B6E
:10366000FCF719FEC4E900010BE053EC192B51ECF7
:10367000100BFCF710FE53EC182BFCF70CFEC4E902
:1036800000014FF0FF30AAE7C348A84279DB9DED67
:10369000120B51EC100B00F0F5FB41EC180B9FEDF9
:1036A000C00B53EC102BFCF79DFE9FEDBF1B53ECA2
:1036B000112BFCF7F0FDFDF7B4F80746FDF793F882
:1036C00041EC190B53EC1A2BFCF78CFE53EC182B26
:1036D000FCF785FE41EC180B53EC1B2B51EC190B3E
:1036E000FCF780FEDFF8C8A241EC100B4FEA15583A
:1036F0000125FA4453EC102B51EC180BFCF76CFE2F
:10370000032DC4E900013DD0C1F30A5005EB45117A
:10371000A8EB00001139814234DA0AEB051BB0EE48
:1037200048AA9BED000BF0EE68AA53EC102B51EC6D
:10373000190BFCF757FE41EC1B0B51EC1A0B53EC29
:103740001B2BFCF749FE41EC180B51EC1A0B53EC08
:10375000182BFCF741FE53EC1B2BFCF73DFE9BEDB9
:10376000020B41EC1A0B53EC102B51EC190BFCF72C
:1037700039FE53EC1A2BFCF72FFE41EC100B6D1C9D
:10378000B8E70EE0002EA8BF3846BFF628AF94ED8C
:10379000000B51EC100B81F00041C4E900017842AC
:1037A0001DE7C6F3130040F4801EC6F30A50A0F2D2
:1037B000F530471100F01F05C5F12000DDF848B0D5
:1037C00008900020069007900520EC467949002DCE
:1037D00007EB0002794408BF51F8221009D051F8D4
:1037E000223001EB8201AB404A68089922FA01F1CC
:1037F0001943A1FB0E26A1FB0B131A449A4234BFB6
:103800000123002303EB06080CEB8003D3E901A698
:103810000E448E4234BF0121002192448A4411B1EA
:10382000924502D903E0924501D2012100E0002136
:10383000C3E901A641444CF82010011EA0F101008B
:10384000C4DC029800F10050850F0298DDE903679F
:103850008000DDF81480FCF7C6FF41EC1A0B3046FF
:10386000FCF7D2FF9FED541B53EC112BFCF7BAFD74
:1038700041EC1B0B3846FCF7C7FF9FED511B53EC87
:10388000112BFCF7AFFD41EC180B4046FCF7BCFFD9
:103890009FED4D1B53EC112BFCF7A4FD41EC190BD4
:1038A00051EC180B53EC192BFCF7F5FC53EC1B2BCC
:1038B000FCF7F1FC53EC1A2BFCF7EDFCCDE9080109
:1038C000002008909DED080B53EC1A2B51EC100BC7
:1038D000FCF782FD53EC1B2BFCF77EFD53EC182B01
:1038E000FCF77AFD53EC192BFCF779FD9FED381BA3
:1038F00053EC112BFCF776FD9FED370B41EC180BC9
:1039000053EC102B9DED080B51EC100BFCF76AFDEE
:1039100053EC182BFCF7BFFC9FED310B41EC180B5F
:1039200053EC102B9DED080B51EC100BFCF75AFDDE
:1039300053EC182BFCF7AFFC41EC100B139810F074
:10394000004F06D06D4251EC100B81F0004141EC6C
:10395000100B284684ED000B41E60000000000003B
:103960000000000000000000FB21E93F7CD902407C
:1039700000004054FB21F93F3163621A61B4D03D2D
:10398000FB21F93F000000000000601A61B4D03D47
:103990007370032E8A19A33BFB21394100000000FC
:1039A00083C8C96D305FE43F000000000000E03FC5
:1039B000620B0000B00A0000000000000000103E92
:1039C000000000000000103C000000000000103A61
:1039D000182D4454FB21F93D3326A611460B113C0A
:1039E00000000054FB21F93D10B52DED040B2DED29
:1039F000088B82B0B0EE419AF0EE619A0B9820F0FD
:103A000000449FED4BABB4F1795F11DA9DED0A0BE9
:103A100051EC100BFCF705FF002801BFB0EE4A0A7D
:103A2000F0EE6A0A02B0BDEC088B04BF04B010BD12
:103A30009DED0A0B53EC102B51EC100BFCF7D2FC54
:103A400041EC180B3C480621B0EE480AF0EE680A3B
:103A5000784400F081F853EC182B51EC100BFCF774
:103A6000C1FC9DED0A0B41EC1B0B53EC192B51ECE7
:103A7000100BFCF7B7FC41EC190B53EC1B2B51EC72
:103A8000180BFCF7AFFC53EC192BFCF7A5FC9FEDD2
:103A90002C0B41EC190B53EC102B51EC180BFCF7D1
:103AA000A1FC41EC100B2848844210DA53EC192B8E
:103AB00051EC100BFCF790FC53EC1A2BFCF78FFC2D
:103AC00041EC100B02B0BDEC088B04B010BD1F48D8
:103AD000A042BCBF9FED1E1B8DED001B06DBA4F5B5
:103AE00000100190002000909DED001B51EC100B88
:103AF00053EC112BFCF770FC9DED000B41EC180B07
:103B000053EC102B51EC1A0BFCF766FC41EC1A0B32
:103B100053EC192B51EC180BFCF75EFC53EC1A2BF1
:103B2000FCF75DFC41EC100BCCE70000000000004E
:103B3000000000000000F03FD4070000000000007B
:103B4000000000000000E03F3333D33F0000E93FB6
:103B5000000000000000D23F70B504462DED028B3E
:103B60004D1E00EBC500B0EE408AF0EE608A90ED8D
:103B7000000B35F0060017D053EC182B51EC100B4E
:103B8000FCF730FC41EC100B6D1E04EBC50090ED12
:103B9000001B51EC100B53EC112BFCF77CFB41ECA0
:103BA000100B35F00600E7D1022D36D0042D1CD0C5
:103BB000062D1CBFBDEC028B70BD53EC182B51ECD5
:103BC000100BFCF70FFC94ED0A1B53EC112BFCF7C8
:103BD00062FB53EC182BFCF705FC94ED081B53EC2F
:103BE000112BFCF758FB41EC100B53EC182B51EC4C
:103BF000100BFCF7F7FB94ED061B53EC112BFCF7B5
:103C00004AFB53EC182BFCF7EDFB94ED040B53EC43
:103C1000102BFCF740FB41EC100B53EC182B51EC34
:103C2000100BFCF7DFFB94ED021B53EC112BFCF7A0
:103C300032FB53EC182BFCF7D5FB94ED001B53EC37
:103C4000112BFCF728FBBDEC028B41EC100B70BD77
:103C500031B504462DED040B2DED0A8BB0EE41BAC3
:103C6000F0EE61BA0B989DED0A0B20F00040B0F128
:103C7000795F0DDA51EC100BFFF71EFC042808BF2A
:103C800000F09AF89DED0A0BBDEC0A8B05B030BD33
:103C900053EC102B51EC100BFCF7A4FB41EC180B70
:103CA0009DED0A0B53EC182B51EC100BFCF79AFB13
:103CB00041EC190B2C48B0EE480AF0EE680A0521D9
:103CC0007844FFF749FF9FED2ACBB0EE40AAF0EE13
:103CD00060AA9CB353EC1C2B51EC190BFCF782FB34
:103CE00041EC1C0B53EC1A2B51EC190BFCF77AFB33
:103CF0009FED210B41EC190B53EC102B51EC1B0BDE
:103D0000FCF770FB53EC192BFCF766FB53EC182BFC
:103D1000FCF768FB53EC1B2BFCF75EFB53EC1C2BF6
:103D2000FCF75AFB9DED0A1B53EC112BFCF757FBDC
:103D3000BDEC0A8B05B041EC100B30BDFFE753EC36
:103D40001A2B51EC180BFCF74DFB53EC1C2BFCF71A
:103D5000A2FA53EC192BFCF745FB9DED0A1B53EC23
:103D6000112BFCF798FAE3E75C0600000000000066
:103D7000495555555555C5BF000000000000E03FAE
:103D800010B553EC102B51EC100BFCF784FA41ECFE
:103D9000100B10BD000000009FED050B10B553EC9B
:103DA000102B51EC100BFCF7AFFC41EC100B10BDCD
:103DB00000000000000000009FED050B10B553EC63
:103DC000102B51EC100BFCF70DFB41EC100B10BD50
:103DD000000000000000001002E008C8121F08C127
:103DE000002AFAD170477047002001E001C1121F7C
:103DF000002AFBD1704700000149086070470000AD
:103E00004C00002038B5044600BF1D48C06A03219D
:103E1000B0FBF1F0206000206060A060642500BF6E
:103E20002807406A0090204600F01AF912E000BF0F
:103E30004FF08040406A0099884200D16D1E00BF5B
:103E40004FF08040406A00904FF47A7000E0401ECE
:103E50000028FCDC002DEAD1C820FDF793FF0021EB
:103E60004FF08040FDF784FF002003E0002144F87C
:103E70002010401C0328F9DB204600F0F1F838BD83
:103E8000002C014082B0CDE9000121F000400190FA
:103E90009DED000B02B051EC100B704708B50120EE
:103EA0004F49096E01434E4A11661146096E0140A1
:103EB000009100BF00BF00071146896D0143916565
:103EC0001146896D0140009100BF00BF04200246E9
:103ED000444B19684FF6FF031940434B0B4343EA29
:103EE0000221404B196000BF00BF4048806840F489
:103EF00080403E49886000BFFFF794F8FEF732FA31
:103F0000FEF7CCF9FEF7F6FAFDF76EFFFEF7D4FBED
:103F1000FEF7B2FCFEF766F9FEF732FDFEF7CCFDC8
:103F2000FFF784FAFFF714FA4FF0A040FFF7FCF90F
:103F3000FFF78CFAFFF79CFAFFF7A0FAFFF7B2FA47
:103F40002B492C48FDF73DF92B492A48FDF739F953
:103F500000BF2A48C06A00EE100AB8EE400A28489E
:103F600080ED000A00BF4FF08040C06A00EE100AEA
:103F7000B8EE400A234880ED000A9FED230A23484B
:103F800080ED010AB4EE080A80ED000A9FED200AD8
:103F900080ED030A1F49C8609FED1F0A1F4880ED8E
:103FA000010A9FED1F0A80ED000AB1EE040A80EDC0
:103FB000030A1C49C86000F03DF84FF4E0511A486C
:103FC000FDF73FFB4FF400614FF09040FDF739FBE8
:103FD0001648FFF717FF01201549086000BFFEE7EC
:103FE000001002400CED00E00000FA0500700040F7
:103FF0000100110200080050F2004235002C01407F
:10400000300000202C000020CDCCCC3C70000020E3
:104010003333733F500000206F12833A8400002036
:1040200055C1283C6000002000080048C400002062
:104030002800002010B500210848FDF799FE012155
:104040000648FDF737FC10210448FDF733FC4FF418
:1040500080710248FDF72EFC10BD0000002C0140CD
:104060000168054A516300BF4168916300BF8168E0
:10407000D16300BF70470000002C0140081C304491
:10408000586C8094010002000400060008000A0039
:104090000C00100020004000800000010000000023
:1040A0000404040438380000080000000800000878
:1040B0000000080000000800000000020406080AD2
:1040C0000C0E10140001020304050607080A000084
:1040D000DB0F4940920A0640920A8640F90FC94018
:1040E0009E531C4417B7D13A0DE0454017B75139DC
:1040F0006F12033B00409C450000FA4300008040E3
:10410000081C3044586C8094010002000400060032
:1041100008000A000C001000200040008000000190
:104120000000000004040404383800000800000007
:10413000080000080000080000000800000000025D
:104140000406080A0C0E10140001020304050607F9
:10415000080A081C3044586C8094010002000400D6
:10416000060008000A000C0010002000400080003B
:1041700000010000000004040404383800000800B6
:10418000000008000008000008000000080000000F
:1041900000020406080A0C0E1014000102030405B4
:1041A0000607080A081C3044586C8094010002007D
:1041B0000400060008000A000C0010002000400067
:1041C00080000001000000000404040438380000EE
:1041D00008000000080000080000080000000800B7
:1041E000000000020406080A0C0E1014000102036D
:1041F00004050607080A0100020004000600080082
:104200000A000C00100020004000800000010000A7
:104210000000000000000102030406070809000076
:1042200000000102030400004C5555555555A53FAB
:104230007751C1166CC156BF9015CB19A001FA3E3B
:10424000AD529C804F7E92BEC4B1B4BD9EEE213E65
:10425000D43888BEE9FAA8BD00004054FB21F93FDC
:104260003163621A61B4D03D0000601A61B4D03D80
:104270007370032E8A19A33B0000002E8A19A33BFA
:10428000C14920259A837B3900000000000000000E
:104290006E83F9A22915444ED15727FCC0DD34F5B1
:1042A000999562DB4190433CAB6351FE61C5BBDE37
:1042B0003A6E24B7E0D24D42EA2E49061C92D1094B
:1042C0001CEB1DFE3EA729B1F53582E88444BB2EC8
:1042D00026709CE9417E5FB439D69139F439538315
:1042E0008B5F849C3B28F9BDFF97F81F0F9805DE74
:1042F0008B112FEF1F6D0A5ACF7E366DB709CB2772
:10430000663F464F2DEA5F9EC7BA27757BF1E5EB06
:10431000F739073DEA92528AB15FFB6B085D8D1F4A
:10432000A6F810111111813FD561C119A0012ABF52
:104330007DFEB157E31DC73EEB9C2B8AE6E55ABED6
:104340007CD5CF5A3AD9E53D6843000800000020EB
:1043500050000000D83D0008B8430008500000207D
:1043600080040000E83D000800000000000000009C
:10437000000000006666964000000000000000009B
:1043800000000000000000000000484200000000A3
:10439000000000000000000000000000000000001D
:1043A000000000000000000000000000000000000D
:0843B0000024F40000000000ED
:04000005080001D915
:00000001FF
