:020000040800F2
:10000000C8040020ED01000841240008470F000843
:100010003D240008610800084D2C00080000000085
:10002000000000000000000000000000112900088E
:10003000450F000800000000252800085529000889
:10004000070200080702000807020008070200086C
:10005000070200080702000807020008070200085C
:1000600007020008070200080702000869090008E3
:10007000070200080702000807020008070200083C
:10008000070200080702000807020008070200082C
:10009000070200080702000807020008070200081C
:1000A000070200080702000807020008070200080C
:1000B00007020008070200080702000807020008FC
:1000C00007020008070200080702000807020008EC
:1000D00007020008070200080702000807020008DC
:1000E00007020008070200080702000807020008CC
:1000F00007020008070200080702000807020008BC
:1001000007020008070200080702000807020008AB
:10011000070200080702000807020008070200089B
:10012000070200080702000807020008070200088B
:10013000070200080702000807020008070200087B
:10014000070200080702000807020008070200086B
:10015000070200080702000807020008070200085B
:10016000070200080702000807020008070200084B
:10017000070200080702000807020008070200083B
:10018000070200080702000807020008070200082B
:10019000070200080000000007020008070200082C
:1001A000070200080702000807020008011A0008F9
:1001B00007020008070200080702000807020008FB
:1001C00007020008070200080702000807020008EB
:1001D0000702000807020008DFF80CD000F082FADE
:1001E0000048004735360008C8040020064880470C
:1001F00006480047FEE7FEE7FEE7FEE7FEE7FEE70C
:10020000FEE7FEE7FEE7FEE7DD2A0008D901000869
:100210002DE9F05F0546002092469B46884606463B
:10022000814640241BE0284641464746224600F0CE
:10023000A2F953465A46C01A914110D311461846A6
:10024000224600F089F92D1A67EB01084F46224635
:100250000120002100F080F917EB00094E41201E1B
:10026000A4F10104DFDC484631462A464346BDE896
:10027000F09FD2B201E000F8012B491EFBD270477B
:100280000022F6E710B513460A4604461946FFF762
:10029000F0FF204610BD2DE9FE4F804681EA0300A5
:1002A000C00F0C46009021F0004123F00045B8EB50
:1002B0000200A94105D24046214690461C460B4605
:1002C000024623F00040104347D0270DC7F30A0031
:1002D000C3F30A510290401A019040286BDAC3F32D
:1002E000130040F4801B0098924620B10023D2EB0B
:1002F000030A63EB0B0B01985946C0F140025046CC
:1003000000F02AF906460D4650465946019A00F07B
:1003100042F910EB08006141002487EA115284EA97
:10032000E7731A4340D0009A62B3019A012A4FEA58
:10033000075215DC001B61EB02014FF0004202EA9C
:100340000752CDE90042001C41F5801132462B4690
:1003500000F079F903B0BDE8F08F40462146F9E797
:10036000001B61EB0201001C41F5801300185B418A
:100370002018A2F5001747EB030140EAD570B61923
:100380006D4111E06D084FEA360645EAC0754FEA47
:100390000752001B61EB0201001C41F58011490866
:1003A0004FEA30000019514132462B4603B0BDE8F8
:1003B000F04F00F039B90098012240000023D0EB43
:1003C000020263EBE073009821464FEAE074B8EB59
:1003D000000061EB0401E9E783F000435BE781F093
:1003E000004158E72DE9FE4F81EA030404F0004480
:1003F00021F0004100944FF0000B23F0004350EA3D
:1004000001045ED052EA03045BD0C3F30A54C1F383
:100410000A552C44A4F2F3340194A0FB0254C1F316
:10042000130141F48011C3F3130343F4801301FB60
:10043000024400FB034E840A970A44EA815447EAC7
:100440008357A4FB076802958D0A05FB07854FEAD1
:10045000932C04FB0C542705029D4FEA065847EAEB
:100460001637B5EB08056EEB070C870E920E47EAC0
:10047000811742EA8312A7FB0201B6EB0B0164EB82
:1004800000042B0D43EA0C335E1844EB1C50DA4693
:100490005146E7FB0201C5F313044FEA0B3343EA6D
:1004A00014534FEA0432019C43EA0603A4F10C04FE
:1004B0000294009CCDE900B400F0C5F803B0BDE89B
:1004C000F08F00200146F9E7C1F30A5210B5C1F3DD
:1004D000130140F2FF3341F480119A4201DA002007
:1004E00010BD40F233439A42A2F2334203DC52423F
:1004F00000F041F810BD904010BD00F0004230F017
:1005000000400AD0C10D01F56071C0F3160042EA47
:100510000151C2084007114370470020014670474F
:1005200001F0004330B421F0004150EA010206D04E
:100530000A0DA2F56072C1F31301002A02DC30BC7F
:1005400000207047440F44EAC104C100E01830BCE9
:1005500000EBC25000F031B8202A04DB203A00FA48
:1005600002F1002070479140C2F1200320FA03F30A
:10057000194390407047202A04DB203A21FA02F008
:100580000021704721FA02F3D040C2F120029140CD
:10059000084319467047202A06DBCB17203A41FA58
:1005A00002F043EAE07306E041FA02F3D040C2F100
:1005B000200291400843194670470029A8BF7047A0
:1005C000401C490008BF20F00100704710B4B0FA89
:1005D00080FC00FA0CF050EA010404BF10BC704724
:1005E00049B1CCF1200421FA04F411FA0CF118BF3E
:1005F000012121430843A3EB0C01CB1D4FEA00610D
:100600004FEA102042BF002010BC704700EBC350DF
:1006100010440029A4BF10BC7047401C490008BF0B
:1006200020F0010010BC704710B5141E73F10004D7
:1006300008DA401C41F1000192185B411A4301D1D4
:1006400020F0010010BD2DE9F04D92469B4611B1FE
:10065000B1FA81F202E0B0FA80F220329046FFF760
:100660007BFF04460F4640EA0A0041EA0B0153466D
:100670005A46084313D0114653EA010019D0C8F175
:1006800040025046FFF777FF05460E465046594652
:100690004246FFF761FF084305D0012004E02046F1
:1006A0003946BDE8F08D0020054346EAE0762C434C
:1006B00037430A986305E40AA0EB08000022FD0A0C
:1006C00044EA47540A3002D500200146E9E7010513
:1006D00010196941DDE9084500196941BDE8F04D8F
:1006E000A2E70000064C074D06E0E06840F0010379
:1006F00094E8070098471034AC42F6D3FFF770FD3A
:10070000A83A0008C83A00082DE9F04D81EA030430
:1007100004F0004B21F0004514464FF0000A23F08E
:10072000004150EA050220D054EA01021DD0C5F371
:100730000A570246C5F31303C1F31300C1F30A5667
:1007400040F4801543F48013A7EB0608101BD6462F
:1007500008F2FD3873EB050002D308F1010801E04F
:1007600092185B41B8F1000F03DA00200146BDE8A2
:10077000F08D00204FF48011064684460EE0171BD2
:1007800073EB050705D3121B63EB050306434CEA25
:10079000010C49084FEA300092185B4150EA01070A
:1007A000EDD152EA030012D082EA040083EA050187
:1007B000084305D0101BAB4106D20122002306E0FE
:1007C00000224FF0004302E06FF0010253101AEBD9
:1007D00006004CEB085110EB0A0041EB0B01BDE8A1
:1007E000F04DFFF721BF0EB5C10F80EAE07008445D
:1007F000CA07002140F233438DE80E000A460B463B
:10080000FFF721FF03B000BD0EB540F23341029166
:100810000021CDE900110A460B46FFF714FF03B093
:1008200000BD70B5C1F30A5201F000450024C1F3C8
:10083000130140F2FF3341F480119A4201DA0020A3
:1008400070BD40F233439A42A2F2334203DC52427B
:10085000FFF791FE00E090402C43F1D0404270BD84
:1008600000BFFEE710B5014600227F208B680A4CCE
:100870002340C40723438B6000BF00BF00BF8868CC
:10088000C00F0028FAD17F20D1F8B43003400024F3
:10089000E3409AB2104610BDC0FFFF3FDFED310AC2
:1008A000B0EE600AD0ED010A90ED001AC168D1EDFA
:1008B000011A41EE210AC0ED010AD0ED010AC1681A
:1008C00091ED031AF4EEC10AF1EE10FA05DDC168EC
:1008D000D1ED030AC0ED010A17E0D0ED010AC168AD
:1008E00091ED031AB1EE411AF4EEC10AF1EE10FADD
:1008F00007D2C168D1ED030AF1EE600AC0ED010A2A
:1009000003E0D0ED010AC0ED010AD0ED010AC16893
:1009100091ED001AD0ED001A41EE210AB0EE600A06
:10092000C168D1ED030AF4EEC00AF1EE10FA05D267
:10093000C168D1ED030AB0EE600A12E0C168D1EDE2
:10094000030AF1EE600AF4EEC00AF1EE10FA07DDD8
:10095000C168D1ED030AF1EE600AB0EE600A00E072
:1009600000BF70470000000000B52DED108B83B074
:1009700000BF0220FD49486000BFFD48C06800EE8E
:10098000100AB8EE400ADFEDFB0A80EE201AFA48A2
:1009900080ED001AF648006900EE100AB8EE400A31
:1009A000DFEDF60A80EE801A9FEDF50A31EE400A7F
:1009B000F44880ED000A00BF4803406A00EE100AC8
:1009C000B8EE400AF048D0ED000A20EE200AEF48C9
:1009D000D0ED000A80EE201AED4880ED001AED48B7
:1009E00000680A287DD10020EA4908604FF0804065
:1009F000006800F01000E84908600846006888BBFD
:100A0000E34890ED000AE548D0ED000AB4EEE00AB4
:100A1000F1EE10FA10DBDE4890ED000ADF48D0ED71
:100A2000000A30EE600ADE48D0ED000A80EE201A9F
:100A3000DC4880ED001A49E0D54890ED000AD24824
:100A4000D0ED000A30EE200AD448D0ED000A30EE96
:100A5000600AD348D0ED000A80EE201AD14880ED1C
:100A6000001A33E0FFE7CA4890ED000ACB48D0ED0A
:100A7000000AB4EEE00AF1EE10FA10D8C44890ED86
:100A8000000AC648D0ED000A30EE600AC448D0ED36
:100A9000000A80EE201AC34880ED001A16E0BF4815
:100AA00090ED000AB1EE400AB748D0ED000A30EEF2
:100AB000600AB748D0ED000A30EE200AB848D0ED01
:100AC000000A80EE201AB74880ED001AB04890ED79
:100AD000000AB24880ED000AB34890ED000AB14820
:100AE00000E00EE0D0ED000A30EE600AAF4880ED85
:100AF000000AFFF7D3FEB1EE400AAD4880ED000AD0
:100B000004E0A4480068401CA2490860002016E0E8
:100B1000974951F8201000EE101AF8EE400AA54946
:100B200091ED001AA44991ED000A10EE810AB1EE90
:100B3000400AA24901EB800181ED000A401C032814
:100B4000E6DB9E4890ED020A10EE101A0846FFF709
:100B5000D4FC41EC1B0B9A4890ED000A8C48D0ED78
:100B6000000A984890ED001A00EE810A10EE101A63
:100B70000846FFF7C2FC41EC1D0BB0EE4D0AF0EE4B
:100B80006D0A02F07DF8B0EE40CAF0EE60CA53EC98
:100B90001B2B51EC1C0BFFF725FC41EC190B874874
:100BA00090ED010A10EE101A0846FFF7A6FC41EC82
:100BB0001D0B854890ED000A7548D0ED000A81486C
:100BC00090ED001A00EE810A10EE101A0846FFF7A9
:100BD00094FC41EC1F0BB0EE4F0AF0EE6F0A02F0EE
:100BE0004FF8B0EE40EAF0EE60EA53EC1D2B51EC0A
:100BF0001E0BFFF7F7FB41EC1B0B704890ED000A52
:100C000010EE101A0846FFF778FC41EC1D0B604807
:100C100090ED000A6B48D0ED000A20EE200A10EE9D
:100C2000101A0846FFF769FC41EC1F0BB0EE4F0AA3
:100C3000F0EE6F0A02F024F8B0EE40EAF0EE60EA5F
:100C400053EC1D2B51EC1E0BFFF7CCFB41EC1C0BA6
:100C500053EC1B2BFFF71FFB41EC1A0B53EC192B2A
:100C6000FFF719FB41EC180B9FED580B53EC102BC1
:100C7000FFF7B8FBCDE900019DED000B51EC100B27
:100C8000FFF74EFC00EE100A524880ED000A48487B
:100C900090ED000A4F48D0ED000A30EE600A4E4851
:100CA00080ED000AFFF7FAFD4C4880ED000A4C4841
:100CB0000068002859D04B4890ED000A10EE100A49
:100CC000FFF71BFC41EC190B314890ED000A3D4841
:100CD000D0ED000A20EE200A10EE101A0846FFF7A9
:100CE0000CFC41EC1F0BB0EE4F0AF0EE6F0A01F066
:100CF000C7FFB0EE40DAF0EE60DA384890ED000A57
:100D000010EE100AFFF7F9FB41EC1E0B53EC1D2B04
:100D1000FFF768FB41EC1C0B9FED330B53EC102BE2
:100D2000FFF7B9FA41EC1B0B9FED310B53EC102B85
:100D3000FFF758FB41EC1A0B53EC192BFFF752FB52
:100D400041EC180BFFF7C0FB80B22B490860254827
:100D500090ED000A10EE100AFFF7CFFB41EC190BE3
:100D6000194890ED000A0A4848E0DBE00000024024
:100D7000940000207B94814200000020005D964694
:100D8000666696400C000020443800082C000020C5
:100D90002400002038000020400000203C000020FB
:100DA000583800081C000020200000205C000020B3
:100DB000180000204C38000850380008B00000200F
:100DC000403800085C3800083C380008000000602B
:100DD0005555E53F140000204C0000203400002051
:100DE0002800002030000020000000000000F03F3C
:100DF000000000000000E03FBC000020D0ED000A31
:100E00004A4890ED001A00EE810A10EE101A0846CA
:100E1000FFF773FB41EC1F0BB0EE4F0AF0EE6F0AC9
:100E200001F02EFFB0EE40DAF0EE60DA404890EDCF
:100E3000000A10EE100AFFF760FB41EC1E0B53ECAA
:100E40001D2BFFF7CFFA41EC1C0B1FED190B53ECD8
:100E5000102BFFF720FA41EC1B0B1FED1B0B53EC83
:100E6000102BFFF7BFFA41EC1A0B53EC192BFFF7CD
:100E7000B9FA41EC180BFFF727FB80B22D49486007
:100E80002D4890ED000A10EE100AFFF736FB41ECFA
:100E9000190B2A4890ED000A2948D0ED000A234892
:100EA00090ED001A00EE810A10EE101A0846FFF7C6
:100EB00024FB41EC1F0BB0EE4F0AF0EE6F0A01F07D
:100EC000DFFEB0EE40DAF0EE60DA194890ED000A8D
:100ED00010EE100AFFF711FB41EC1E0B53EC1D2B1B
:100EE000FFF780FA41EC1C0B1FED410B53EC102B6C
:100EF000FFF7D1F941EC1B0B1FED430B53EC102B0B
:100F0000FFF770FA41EC1A0B53EC192BFFF76AFA52
:100F100041EC180BFFF7D8FA80B206498860084602
:100F200002F052FC03B0BDEC108B00BD5C38000831
:100F300034000020BC0000203000002040380008B1
:100F400024000020704700BFFEE700002DE9F041BB
:100F500005460C460026606800B100BF194885426E
:100F600009D14FF0A04000F050F80746164800F0B5
:100F70004CF838430BE0154800F047F80746144892
:100F800000F043F80743134800F03FF83843A8B98E
:100F9000606860B1D4E900010843A1680843E168D2
:100FA0000843A9680C4A11400843A86007E0A868F4
:100FB0000949084021680843A86000E0012630463E
:100FC000BDE8F08100030050000100500004005013
:100FD0000005005000060050E030C0FF70B5054627
:100FE0000C460026284600F010F858B9D4E9000154
:100FF0000843A1680843E9684CF21802914308438A
:10100000E86000E00126304670BD0146886800F0C7
:101010000100704770B505460C460026606800B1B7
:1010200000BF2846FFF7F1FF20BB606870B1A168E0
:1010300020680843E168084321690843616908435F
:10104000E9680E4A11400843E8600BE0E168206857
:1010500008432169084361690843E968074A114068
:101060000843E8606068296B21F00F0101432963A0
:1010700000BF00E00126304670BD00001CC0F0FF3C
:1010800070B500F13004C1F3012504EB85031C6841
:1010900001F01F061F25B540AC4301F01F06C2F347
:1010A0008465B5402C431C6070BD70B500F114041C
:1010B000C1F3406504EB85031C68C1F304560725A2
:1010C000B540AC43C1F3045502FA05F52C431C604E
:1010D00070BD000030B5D0F8B030C1F31204A343A6
:1010E00002F01805034CEC400C402343C0F8B0302C
:1010F00030BD0000FFFF0700826822F0E0720A4363
:101100008260704708B50549896C0143034A9164C0
:101110001146896C0140009100BF08BD00100240DB
:1011200008B50549C96C0143034AD1641146C96C2D
:101130000140009100BF08BD0010024008B50549FC
:10114000C96C0143034AD1641146C96C0140009146
:1011500000BF08BD0010024008B50549C96C014335
:10116000034AD1641146C96C0140009100BF08BD1B
:1011700000100240F0B502460B46186890FAA0F045
:10118000B0FA80F487E00120A0401D6805EA000164
:1011900000297FD05868012802D0586802281DD144
:1011A0009868956891FAA1F6B6FA86F67700032654
:1011B000BE40B54391FAA1F6B6FA86F6760000FA7B
:1011C00006F63543956000BFDD68186856688643AB
:1011D00000FB05F73E43566000BF00BF1869D568A5
:1011E00091FAA1F6B6FA86F677000326BE40B5431B
:1011F00091FAA1F6B6FA86F6760000FA06F63543BD
:10120000D56000BF586802282DD1FF2914D858692D
:10121000156A91FAA1F6B6FA86F6B7000F26BE4017
:10122000B54391FAA1F6B6FA86F6B60000FA06F6CC
:101230003543156200BF16E05869556A0E0A96FAE2
:10124000A6F6B6FA86F6B7000F26BE40B5430E0ADC
:1012500096FAA6F6B6FA86F6B60000FA06F6354312
:10126000556200BF00BF5868156891FAA1F6B6FA3A
:1012700086F677000326BE40B54391FAA1F6B6FA8A
:1012800086F6760000FA06F63543156000BF00E0EA
:1012900000E000BF641C1868E04000287FF473AFD2
:1012A000F0BD81627047816170474FF47A71B0FB85
:1012B000F1F2521E4FF0E0235A6100229A6105229A
:1012C0001A6100BF704700002DE9F84F04460D4633
:1012D0000120009000BF206800F00100002853D1D9
:1012E0002969A8680843696908432168284A1140A8
:1012F00008432060E868616821F44051014361605F
:1013000000BFA869A16821F440710143A16000BF3A
:101310004FF4406000F042F88146B9F1000F2AD046
:10132000686840B300200090CA46D5E900B606B30D
:101330001FFA8BF0174931F810C06246002350465F
:101340001946FEF765FF4FF480734FF0000CA0FBC9
:10135000032E01FB03E100FB0C107108571840EB52
:101360000C01324663463846FEF752FF0A490840F0
:10137000E06000BF00BF2868E16A21F00F0182B27F
:101380001143E16200BF00BF0098BDE8F88F000084
:10139000F3E9FFEF56390008FFFF0F002DE9F04198
:1013A0000446002500BF164800682040C8B1B0F5CB
:1013B000806F06D0B0F5006F07D0B0F5406F0FD149
:1013C00008E001F057FA054615E000F01DF800B1FD
:1013D0000C4D10E000F020F808B14FF400450AE091
:1013E00000BF01F047FA074601F01EFA064601F079
:1013F0002DFA054600BF00BF2846BDE8F081000079
:10140000881002400024F40002480068C0F38020E5
:10141000704700000010024002480068C0F340001E
:1014200070470000901002400248C068C0F30620D8
:1014300070470000001002400349896821F0F00164
:101440000143014A91607047001002400149086061
:10145000704700004400002010B503460A460021F2
:10146000147B21469068014321F48060546840EA6F
:10147000040121F40060146840EA040121F4805062
:10148000D48940EA040121F40050146940EA0401BF
:1014900021F48040D46A40EA040121F40040D46A77
:1014A00040EA04011948834205D01948834202D01A
:1014B0001848834209D121F47020546940EA04019C
:1014C00021F08050946940EA04011048834205D01D
:1014D0000F48834202D00F48834213D121F4700099
:1014E000546A40EA040121F08070D46940EA0401A2
:1014F00021F00070146A40EA040121F00050946A5F
:1015000040EA04015964002010BD0000002C014095
:101510000034014000500140026A0A4302627047F1
:10152000016821F0800101607047816821F080012D
:1015300081607047016841F001010160704700005F
:10154000F0B503461446012901D1002525E0042900
:1015500001D1012521E0102901D102251DE04029FA
:1015600001D1032519E0B1F5807F01D1042514E0F4
:10157000B1F5806F01D105250FE0B1F5805F01D194
:1015800006250AE0B1F5804F01D1072505E0B1F548
:10159000803F01D1082500E009252846084D2E5C32
:1015A00003F1180572191568064E375C0326BE4014
:1015B000B543260C034F3F5CBE4035431560F0BD7C
:1015C0002439000838390008F0B5034614460129CB
:1015D00001D1002525E0042901D1012521E01029B0
:1015E00001D102251DE0402901D1032519E0B1F503
:1015F000807F01D1042514E0B1F5806F01D105256C
:101600000FE0B1F5805F01D106250AE0B1F5804F0A
:1016100001D1072505E0B1F5803F01D1082500E0A3
:1016200009252846084D2E5C03F118057219156826
:10163000064E375CF026BE40B543260C034F3F5C98
:10164000BE4035431560F0BD243900083839000824
:1016500070B5012901D1002425E0042901D101241C
:1016600021E0102901D102241DE0402901D10324E9
:1016700019E0B1F5807F01D1042414E0B1F5806F49
:1016800001D105240FE0B1F5805F01D106240AE005
:10169000B1F5804F01D1072405E0B1F5803F01D1BC
:1016A000082400E009242346046A064DEE5C0A255E
:1016B000B540AC43034DED5C02FA05F52C430462E2
:1016C00070BD000042390008F0B5034614460129F8
:1016D00001D1002525E0042901D1012521E01029AF
:1016E00001D102251DE0402901D1032519E0B1F502
:1016F000807F01D1042514E0B1F5806F01D105256B
:101700000FE0B1F5805F01D106250AE0B1F5804F09
:1017100001D1072505E0B1F5803F01D1082500E0A2
:1017200009252846084D2E5C03F118057219156825
:10173000064E375C0C26BE40B543260C034F3F5C7B
:10174000BE4035431560F0BD243900083839000823
:1017500010B5024613683148824211D0B2F1804F71
:101760000ED02F4882420BD02E48824208D02E48FD
:10177000824205D02D48824202D02D48824204D1B7
:1017800023F070004C6840EA0403244882421AD0D7
:10179000B2F1804F17D02248824214D021488242B1
:1017A00011D0214882420ED0204882420BD02148DD
:1017B000824208D02048824205D02048824202D08E
:1017C0001B48824204D123F44070CC6840EA0403F1
:1017D00013608868D06200BF0888906200BF0F481D
:1017E00082420ED0114882420BD01248824208D069
:1017F0001148824205D01148824202D00C488242F0
:1018000003D10869106300BF00BF00BF506940F0FA
:101810000100506100BF002010BD0000002C0140FD
:101820000004004000080040000C0040003401406B
:101830000050014000400140004401400048014088
:1018400070B50246012901D1002425E0042901D107
:10185000012421E0102901D102241DE0402901D1F9
:10186000032419E0B1F5807F01D1042414E0B1F51F
:10187000806F01D105240FE0B1F5805F01D106240E
:101880000AE0B1F5804F01D1072405E0B1F5803FB2
:1018900001D1082400E009242346064CE55C02F14E
:1018A000180428190468044DEE5C0425B5402C4347
:1018B000046070BD243900082E39000870B5024656
:1018C000012901D1002425E0042901D1012421E0CE
:1018D000102901D102241DE0402901D1032419E07F
:1018E000B1F5807F01D1042414E0B1F5806F01D1FE
:1018F00005240FE0B1F5805F01D106240AE0B1F5BF
:10190000804F01D1072405E0B1F5803F01D10824C3
:1019100000E009242346064CE55C02F1180428196E
:101920000468044DEE5C0825B5402C43046070BD8E
:10193000243900082E3900082DE9F04106460C46EE
:1019400015460127B4F5805F21D007DC012C0CD0AF
:10195000102C10D0B4F5807F2BD112E0B4F5803F6D
:101960001BD0B4F5801F24D11DE02946304600F07D
:1019700069FD07461EE02946304600F0BBFD0746DC
:1019800018E02946304600F011FE074612E02946CD
:10199000304600F063FE07460CE02946304600F072
:1019A000B3FE074606E02946304600F0F5FE07463E
:1019B00000E000BF00BF3846BDE8F081816370479A
:1019C000416270474268024B1A400A4342607047C6
:1019D0008FFFFFFD08B501464FF0E022126900922B
:1019E00000BF0846421C02B1401C06E04FF0E02256
:1019F000126902F4803202B1401E0028F6D108BDFF
:101A0000002000BF0B49496AC9B20846302805D1F9
:101A100020214FF09042916100BF05E020214FF05E
:101A20009042916200BF00BF00BF0249886200BFC0
:101A3000704700000080004070B594B00020119005
:101A40001290139018210BA8FEF71AFC00200790A3
:101A5000089009900A90182101A8FEF711FC4FF494
:101A60000050FFF76BFB0420FFF768FB0120FFF736
:101A700065FB01200190032002900020059001A940
:101A8000C948FFF777FB0220019003200290002055
:101A9000059001A9C448FFF76DFB042001900320C5
:101AA00002900020059001A9BF48FFF763FB0120C9
:101AB0000190032002900020059001A94FF0904072
:101AC000FFF758FB022001900320029000200590B0
:101AD00001A94FF09040FFF74DFBB44900200522CB
:101AE0000D464D40AD0AEB00B14D05EB800555F8B4
:101AF000235025F0FF051543AD4E06EB800646F852
:101B0000235000BF084600210A460346A94D6D5CDC
:101B10005D5944F21006B5431543A64E765C9D51BF
:101B200000BF00BF00BFA34D6D5C5D5925F440555B
:101B30001543A04E765C9D5100BF202200BF9D4DF5
:101B40006D5C5D5925F0200515439A4E765C9D51DC
:101B500000BF0A4600BF974D6D5C5D5925F04005FA
:101B60001543944E765C9D5100BF802200BF914D7D
:101B70006D5C5D5925F0800515438E4E765C9D5158
:101B800000BF821500BF8B4D6D5C5D5925F440751B
:101B90001543884E765C9D5100BFC21400BF854D31
:101BA0006D5C5D5925F440651543824E765C9D5110
:101BB00000BF002011901290139011A94FF0A04087
:101BC000FFF70CFA4FF4A8600B9006200C90002051
:101BD0000D900E9003200F90002010900BA94FF055
:101BE000A040FFF717FA0020734909686FF30D0151
:101BF00001434FF0A042C2F8C0101146096921F418
:101C0000803108B1012200E0002241EA02414FF098
:101C1000A042116100BF00201146096940F2034251
:101C2000914301434FF0A042116100BF00BF104635
:101C30008068624908401146886000BF00BF0846BE
:101C400080685F49084040F080501146886000BFBE
:101C50005C4800685C49B0FBF1F000EB800040009C
:101C60000A21B0FBF1F400E0641E002CFCD14FF41B
:101C7000403007900020089007A95448FFF766F904
:101C80004FF480604FF0A041C96821F440610143E6
:101C90004FF0A042D16000BF4D4A06214FF0A04056
:101CA000FFF7EEF901224A494FF0A040FFF7FDF996
:101CB0007F2247494FF0A040FFF70CFA454A0C211C
:101CC0004FF0A040FFF7DCF9012242494FF0A0405D
:101CD000FFF7EBF97F223F494FF0A040FFF7FAF9F9
:101CE0003D4A12214FF0A040FFF7CAF901223A49BC
:101CF0004FF0A040FFF7D9F97F2237494FF0A040BD
:101D0000FFF7E8F9354A18214FF0A040FFF7B8F97E
:101D1000012232494FF0A040FFF7C7F97F222F4937
:101D20004FF0A040FFF7D6F92D4A4FF480714FF0E5
:101D3000A040FFF7A5F9012229494FF0A040FFF785
:101D4000B4F97F2226494FF0A040FFF7C3F9254A96
:101D50004FF483714FF0A040FFF792F9012221491F
:101D60004FF0A040FFF7A1F97F221E494FF0A0409D
:101D7000FFF7B0F91C4A4FF486714FF0A040FFF70F
:101D80007FF9012218494FF0A040FFF78EF97F221A
:101D900015494FF0A040FFF79DF94FF480010B4823
:101DA000FFF7AAF914B070BD000800480000024017
:101DB0000008024060380008C0000050C0FFFF5F0C
:101DC000C0FFFF7F44000020400D030000030050CF
:101DD000020030048000501D4000201904006008FB
:101DE00000018021000021C3000084CB2DE9F041D7
:101DF0000420FFF787F90120FFF784F90B212B4B13
:101E00001B68C3F30220002425460346C3F1070CD8
:101E1000BCF1040F02D94FF0040C01E0C3F1070C30
:101E2000674603F1040CBCF1070F02D24FF0000C1F
:101E300001E0A3F1030C66464FF0010C0CFA07FC1D
:101E4000ACF1010C0CEA040C0CFA06FC4FF0010892
:101E500008FA06F8A8F1010808EA05084CEA0802A1
:101E600000BF002904DB1007030E1148435407E0AC
:101E70001007040E0D480C3001F00F031B1FC45453
:101E800000BF0B2000280DDB00BF00BF00F01F02C9
:101E9000012191404209920002F1E022C2F80011B2
:101EA00000BF00BF00BFBDE8F08100000CED00E006
:101EB00000E400E000B587B0182101A8FEF7E0F9C2
:101EC0002020FFF72DF90420FFF72AF90120FFF762
:101ED00027F90220FFF724F94FF400614FF09040FA
:101EE000FFF7DFF94FF480612748FFF7DAF94FF485
:101EF00000612548FFF7D5F94FF480512248FFF7DC
:101F0000D0F94020019000200290059001A94FF0E7
:101F10009040FFF72FF94FF40060019001200290EC
:101F200000200390012004900020059001A94FF0AB
:101F30009040FFF71FF94FF480600190012002905C
:101F4000002003900490059001A90F48FFF712F9B3
:101F50004FF4006001900120029000200390049053
:101F6000059001A90848FFF705F94FF4805001904A
:101F700001200290002003900490059001A90248DE
:101F8000FFF7F8F807B000BD000800482DE9F04160
:101F90008EB01C2107A8FEF773F9182101A8FEF7DF
:101FA0006FF901206649C96D0143654AD165114643
:101FB000C96D0140009100BF00BF00BF1146C96C50
:101FC0000143D1641146C96C0140009100BF00BFBC
:101FD00004200190022002900020039004900590BC
:101FE0000C20069001A94FF09040FFF7C3F808209D
:101FF00001900220029000200390049005900C2094
:10200000069001A94FF09040FFF7B4F85B214D4BCB
:102010001B68C3F30220012400250346C3F1070C0B
:10202000BCF1040F02D94FF0040C01E0C3F1070C1E
:10203000674603F1040CBCF1070F02D24FF0000C0D
:1020400001E0A3F1030C66464FF0010C0CFA07FC0B
:10205000ACF1010C0CEA040C0CFA06FC4FF0010880
:1020600008FA06F8A8F1010808EA05084CEA08028F
:1020700000BF002904DB1007030E3348435407E078
:102080001007040E2F480C3001F00F031B1FC4541F
:1020900000BF5B2000280DDB00BF00BF00F01F0267
:1020A000012191404209920002F1E022C2F80011A0
:1020B00000BF00BF00BF002007904FF4E130089040
:1020C000002009900A904FF480600B900C200C9037
:1020D00000200D9007A91D48FFF7F6F800201B49C6
:1020E000896860F35F71194A916000BF00BF1146B3
:1020F000896821F0606141EA4061916000BF00BFE2
:102100001046006820F000501146086000BF00BF74
:102110000846006840F00100086000BF00BF00BF33
:102120000A48C069C0F340500028F8D000BF0748F3
:10213000C069C0F380500028F1D00EB0BDE8F08136
:10214000001002400CED00E000E400E000800040E0
:1021500000B5A1B014211CA8FEF792F8202114A804
:10216000FEF78EF8302108A8FEF78AF8182102A899
:10217000FEF786F84FF400606649096E0143654A30
:1021800011661146096E0140019100BF00BF002099
:10219000ADF8700040201D904FF47A501E90002042
:1021A0001F9020901CA95C48FFF7D2FA5A48FFF70D
:1021B000B7F9002058498968584A11400143564AE6
:1021C000916000BF4FF47A501E9001211046FFF736
:1021D00075FB6020149000201590169017901890B1
:1021E00019901A901B9014AA01214B48FFF7A4FBE9
:1021F00001214948FFF724FB4FF47A501E9010212B
:102200004548FFF75BFB002015901690179014AA25
:1022100010214148FFF790FB10213F48FFF710FBCA
:102220004FF47A501E904FF480713B48FFF746FB05
:10223000002015901690179014AA4FF4807136481C
:10224000FFF77AFB4FF480713348FFF7F9FA00216A
:102250003148FFF7B7FB4FF400102F49496821F4CC
:10226000700101432C4A516000BF1046FFF75DF931
:102270000020089009900A908DF82C00ADF82E00EF
:102280004FF400500C9000200D900E900F904FF0E6
:10229000007010900020119012904FF48040139025
:1022A00008A91D48FFF7D8F80120FEF755FF4FF4A5
:1022B0008070029002200390002004900590069008
:1022C0000620079002A94FF09040FEF753FF4FF40D
:1022D0000070029002200390002004900590069068
:1022E0000620079002A94FF09040FEF743FF4FF4FD
:1022F00080600290022003900020049005900690D8
:102300000620079002A94FF09040FEF733FF21B05E
:1023100000BD000000100240002C0140F8BFFEFF8D
:1023200000B58DB0142108A8FDF7AAFF182102A856
:10233000FDF7A6FF01203E49896D01433C4A9165A6
:102340001146896D0140019100BF00BFFEF704FFF7
:102350000220FEF701FF4FF400400290022003909C
:1023600000200490059006900120079002A94FF0EC
:102370009040FEF7FFFE082002900220039000200C
:102380000490059006900120079002A92948FEF7C5
:10239000F1FE0020ADF82000099040F2CF700A90C5
:1023A00000200B9008A94FF08040FFF7D1F94FF0C3
:1023B0008040FFF7B5F80120810789681E4A114067
:1023C00001438207916000BF020401218007FFF7EB
:1023D000B7F8002201218807FFF776F900220121D2
:1023E0008807FFF7F1F8002201218807FFF730F98D
:1023F0004FF4803210218806FFF7A2F80022102146
:102400008806FFF761F9002210218806FFF7DCF843
:10241000002210218806FFF71BF900214FF08040B1
:10242000FFF7D0FA4FF08040FFF77FF80DB000BD06
:102430000010024000040048F8FFFEFF00BFFEE766
:102440007047000070B50246106A20F0010010626B
:10245000136A5568946924F003041F4E04EA0600C9
:102460000E6840EA060423F002000E6940EA060303
:1024700023F001004E6840EA0603184882420ED05D
:10248000174882420BD01748824208D01648824231
:1024900005D01648824202D01548824213D123F05B
:1024A00008004E6940EA860323F004008E6840EA83
:1024B000860325F480708E6940EA060525F40070D5
:1024C000CE6940EA460555609461C868506300BF14
:1024D0001362002070BD00008FFFFEFF002C014042
:1024E00000340140004001400044014000480140E8
:1024F000005001402DE9F04104460D46206A20F0CD
:1025000010002062266AD4F80480A76927F4407777
:102510001F483840296840EA012726F02000296931
:1025200040EA011626F01000696840EA01161948D1
:1025300084420ED0184884420BD01848844208D0F8
:102540001748844205D01748844202D01648844276
:1025500013D126F08000696940EA811626F0400018
:10256000A96840EA811628F48060A96940EA8108D8
:1025700028F40060E96940EAC108C4F80480A76152
:102580002046E968FFF71AFA26620020BDE8F081CC
:10259000FF8FFFFE002C014000340140004001404D
:1025A00000440140004801400050014070B502461F
:1025B000106A20F480701062136A5568D46924F0A0
:1025C00003041F4E04EA06000E6840EA060423F4E2
:1025D00000700E6940EA062323F480704E6840EADA
:1025E0000623184882420ED0174882420BD0174863
:1025F000824208D01648824205D01648824202D054
:102600001548824213D123F400604E6940EA8623C4
:1026100023F480608E6840EA862325F480508E691A
:1026200040EA061525F40050CE6940EA461555608B
:10263000D461C868D06300BF1362002070BD000081
:102640008FFFFEFF002C014000340140004001409C
:1026500000440140004801400050014070B502466E
:10266000106A20F480501062136A5568D46924F40B
:1026700040741E4820400E6840EA062423F40050AF
:102680000E6940EA063323F480504E6840EA063370
:10269000174882420ED0174882420BD01648824219
:1026A00008D01648824205D01548824202D015480B
:1026B000824213D123F400404E6940EA863323F46A
:1026C00080408E6840EA863325F480408E6940EA77
:1026D000861525F40040CE6940EAC6155560D461E0
:1026E000C868106400BF1362002070BDFF8FFFFE3A
:1026F000002C0140003401400040014000440140F2
:10270000004801400050014030B50246106A20F4F4
:1027100080301062136A146D184D04EA05000D68CC
:1027200040EA050423F400300D8A40EA054323F40F
:1027300080308D8840EA0543114882420ED011480E
:1027400082420BD01048824208D01048824205D005
:102750000F48824202D00F48824206D1506820F4CE
:1027600080308D6940EA052050601465C868956C1A
:10277000906400BF1362002030BD00008FFFFEFF99
:10278000002C014000340140004001400044014061
:10279000004801400050014030B50246106A20F464
:1027A00080101062136A146D174820400D6840EACB
:1027B000052423F400100D8A40EA055323F4801009
:1027C0008D8840EA0553114882420ED0104882425B
:1027D0000BD01048824208D00F48824205D00F48E3
:1027E000824202D00E48824206D1506820F48020F6
:1027F0008D6940EA852050601465C868D06400BFC8
:102800001362002030BD0000FF8FFFFE002C01404E
:1028100000340140004001400044014000480140B4
:102820000050014070470000014600BF0548806825
:1028300000F0F0000009044A105C00F01F0221FAC9
:1028400002F07047001002406E390008014600BFD8
:102850000648806800F4E060054A02EB102000782A
:1028600000F01F0221FA02F0704700000010024041
:102870007E39000810B500BF0A49896801F00C01D3
:10288000042904D0082904D00C2907D103E0064804
:1028900006E0064804E000F00BF801E0024800BF43
:1028A00000BF10BD001002400024F40000366E018D
:1028B00070B500BF1348C06800F003000546022D44
:1028C00002D0032D04D101E00F4C03E00F4C01E0D6
:1028D0000D4C00BF00BFFEF7A7FD60430949C96862
:1028E00001F0F001012202EB1111B0FBF1F10548FA
:1028F000C06800F0C06002EB50604000B1FBF0F037
:1029000070BD0000001002400024F40000366E018B
:102910007047000000BF0121016000BF00BF816857
:102920000B4A1140491C816000BF00BF00BF016815
:1029300001F001010029F9D000BF8168044A11406B
:10294000091D816000BF00BF0121016000BF704709
:10295000C0FFFF7F7047000070B504205749096829
:1029600021F00F010143554A116000BF00BF00BFB5
:102970005248006800F00F000428F8D100BF50480A
:10298000006820F480704E498039C1F8800000BF93
:1029900000BF4C48006840F480304A49086000BFDE
:1029A00000BF00BF47480068C0F340400028F8D08F
:1029B000032020212822002340EA010444EA0224C3
:1029C0001C43404DED68404E35402C433D4DEC607E
:1029D00000BF00BF2846C06840F080702946C8602C
:1029E00000BF00BF0846006840F08070086000BF6C
:1029F00000BF00BF33480068C0F340600028F8D033
:102A000003203049896821F0030101432D4A916078
:102A100000BF8020FEF710FD00BF00BF294880687E
:102A200000F00C000C28F8D12848006840F08070B5
:102A3000264908602648006840F0010024490860E3
:102A40000020486000BF224840686428FBD3002073
:102A5000FEF7F2FC4FF480601A49896821F4E061C6
:102A60000143184A916000BFC0001146896821F4F3
:102A700060510143916000BF1648FEF716FC1548EF
:102A8000FEF7E4FC00200F498831096821F4406119
:102A900001430C4AC2F8881000BF0F480949883129
:102AA0000968030C03229A409143C2B2030C9A4076
:102AB0001143044AC2F8881000BF70BD00200240D4
:102AC00080700040001002400C80FFF9FCED00E037
:102AD000001000E00068890902001C000548006839
:102AE00040F47000034908604FF0006001498039EC
:102AF0000860704788ED00E038B50446002000907B
:102B00002046FDF7AFFE00902046FFF703FF4FF48D
:102B100040010248FEF7F0FA38BD00000003005003
:102B20002DE9F04107262F4D00204FF0A0418446AB
:102B3000BCF1000F02D101F140040DE0B1F1A04F52
:102B400003D0DFF8A480414502D1DFF8A08001E086
:102B5000DFF89C8008F10C042246264B002729460A
:102B6000102F08D1244C245C0C44E260224C245CDD
:102B70000C44A36007E0204C245C0C44A2601E4C73
:102B8000245C0C44E36000BF164800210722034682
:102B9000194C645C1C4464686FF30F041443164DB5
:102BA0006D5C1D446C6000BF00BF0246124B5B5C55
:102BB000D35843F00203104C645C135100BF00BFB4
:102BC00001200849486000BF0846002102460A4B20
:102BD0005B5CD35843F00103074C645C135100BFA6
:102BE000BDE8F081000002400001005000030050E9
:102BF0000007005094000020B238000800BF0820F1
:102C00000549086200BF00BF0846006840F0200088
:102C1000086000BF704700000080004010B5012030
:102C20000649086300BF0846FEF784FC00BF6FF04A
:102C300001000249086100BF10BD0000002C0140E6
:102C400010B54FF08040FEF775FC10BD00BFFEE7E9
:102C500003B401984100009850EAC12018BF042035
:102C60004A0D18BF40F0010040F2FF72B2EB515F15
:102C700008BF40F00200012808BF052002B07047DD
:102C800010B52F499FED2C1B2DED020B84B005983C
:102C900020F000408842DCBF00209DED040B32DDB7
:102CA0002849884209D1049840B94FF0010000F04A
:102CB0006FFC00F03DFC06B010BD05DB9DED040B84
:102CC00000F02AFC06B010BD68469DED040B00F034
:102CD0003BF810F0030011D0012818D09DED021B25
:102CE0009DED000B02281AD000F04AFA51EC100BAF
:102CF00081F0004106B041EC100B10BD9DED021BB0
:102D00009DED000B012000F06FFB06B010BD9DEDA6
:102D1000021B9DED000B00F033FA06B010BD012040
:102D200000F062FB51EC100B81F0004106B041EC69
:102D3000100B10BD000000000000000000000000AB
:102D4000FB21E93F0000F07F2DE9F14F04462DED16
:102D5000020B2DED088B8AB09FEDE70B80ED020B87
:102D6000139EE74826F0004585420ADC9DED120BD4
:102D7000002084ED000B0AB0BDEC088B03B0BDE869
:102D8000F08FE0489FEDE0AB9FEDE1BBA84247DD4F
:102D9000E14F9FEDE39B9FEDE48B9DED120B53EC18
:102DA0001A2B51EC100B002E1CDDFDF715FB41EC2E
:102DB000100BBD4208D053EC1B2B51EC100BFDF750
:102DC0000BFBC4E900010BE053EC192B51EC100B89
:102DD000FDF702FB53EC182BFDF7FEFAC4E90001E6
:102DE0000120C8E7FDF757FA41EC100BBD4208D0AF
:102DF00053EC1B2B51EC100BFDF74DFAC4E900010D
:102E00000BE053EC192B51EC100BFDF744FA53EC8B
:102E1000182BFDF740FAC4E900014FF0FF30AAE794
:102E2000C348A84279DB9DED120B51EC100B00F06A
:102E3000F5FB41EC180B9FEDC00B53EC102BFDF78D
:102E4000D1FA9FEDBF1B53EC112BFDF724FAFDF7D0
:102E5000E8FC0746FDF7C7FC41EC190B53EC1A2BB5
:102E6000FDF7C0FA53EC182BFDF7B9FA41EC180B3B
:102E700053EC1B2B51EC190BFDF7B4FADFF8C8A289
:102E800041EC100B4FEA15580125FA4453EC102B76
:102E900051EC180BFDF7A0FA032DC4E900013DD059
:102EA000C1F30A5005EB4511A8EB0000113981422E
:102EB00034DA0AEB051BB0EE48AA9BED000BF0EEEE
:102EC00068AA53EC102B51EC190BFDF78BFA41EC6F
:102ED0001B0B51EC1A0B53EC1B2BFDF77DFA41EC4D
:102EE000180B51EC1A0B53EC182BFDF775FA53EC39
:102EF0001B2BFDF771FA9BED020B41EC1A0B53EC07
:102F0000102B51EC190BFDF76DFA53EC1A2BFDF752
:102F100063FA41EC100B6D1CB8E70EE0002EA8BF61
:102F20003846BFF628AF94ED000B51EC100B81F042
:102F30000041C4E9000178421DE7C6F3130040F4E4
:102F4000801EC6F30A50A0F2F530471100F01F05AD
:102F5000C5F12000DDF848B00890002006900790E9
:102F60000520EC467949002D07EB0002794408BFA3
:102F700051F8221009D051F8223001EB8201AB4008
:102F80004A68089922FA01F11943A1FB0E26A1FB18
:102F90000B131A449A4234BF0123002303EB0608A3
:102FA0000CEB8003D3E901A60E448E4234BF01210D
:102FB000002192448A4411B1924502D903E092451E
:102FC00001D2012100E00021C3E901A641444CF8EF
:102FD0002010011EA0F10100C4DC029800F1005095
:102FE000850F0298DDE903678000DDF81480FDF7A6
:102FF000FAFB41EC1A0B3046FDF706FC9FED541B23
:1030000053EC112BFDF7EEF941EC1B0B3846FDF7A5
:10301000FBFB9FED511B53EC112BFDF7E3F941EC4A
:10302000180B4046FDF7F0FB9FED4D1B53EC112BA9
:10303000FDF7D8F941EC190B51EC180B53EC192B97
:10304000FDF729F953EC1B2BFDF725F953EC1A2B4F
:10305000FDF721F9CDE90801002008909DED080B4E
:1030600053EC1A2B51EC100BFDF7B6F953EC1B2B5C
:10307000FDF7B2F953EC182BFDF7AEF953EC192B11
:10308000FDF7ADF99FED381B53EC112BFDF7AAF9B5
:103090009FED370B41EC180B53EC102B9DED080BFB
:1030A00051EC100BFDF79EF953EC182BFDF7F3F8DC
:1030B0009FED310B41EC180B53EC102B9DED080BE1
:1030C00051EC100BFDF78EF953EC182BFDF7E3F8DC
:1030D00041EC100B139810F0004F06D06D4251ECEC
:1030E000100B81F0004141EC100B284684ED000BE1
:1030F00041E60000000000000000000000000000A9
:10310000FB21E93F7CD9024000004054FB21F93FFC
:103110003163621A61B4D03DFB21F93F0000000029
:103120000000601A61B4D03D7370032E8A19A33B6E
:10313000FB2139410000000083C8C96D305FE43FC6
:10314000000000000000E03F2A0B0000780A0000A9
:10315000000000000000103E000000000000103CD5
:10316000000000000000103A182D4454FB21F93DE6
:103170003326A611460B113C00000054FB21F93DFB
:1031800010B52DED040B2DED088B82B0B0EE419AF9
:10319000F0EE619A0B9820F000449FED4BABB4F138
:1031A000795F11DA9DED0A0B51EC100BFDF739FB3D
:1031B000002801BFB0EE4A0AF0EE6A0A02B0BDEC88
:1031C000088B04BF04B010BD9DED0A0B53EC102B0F
:1031D00051EC100BFDF706F941EC180B3C480621A9
:1031E000B0EE480AF0EE680A784400F081F853EC3B
:1031F000182B51EC100BFDF7F5F89DED0A0B41EC87
:103200001B0B53EC192B51EC100BFDF7EBF841ECB9
:10321000190B53EC1B2B51EC180BFDF7E3F853EC97
:10322000192BFDF7D9F89FED2C0B41EC190B53EC42
:10323000102B51EC180BFDF7D5F841EC100B28487A
:10324000844210DA53EC192B51EC100BFDF7C4F843
:1032500053EC1A2BFDF7C3F841EC100B02B0BDEC98
:10326000088B04B010BD1F48A042BCBF9FED1E1BC1
:103270008DED001B06DBA4F50010019000200090EE
:103280009DED001B51EC100B53EC112BFDF7A4F836
:103290009DED000B41EC180B53EC102B51EC1A0B6D
:1032A000FDF79AF841EC1A0B53EC192B51EC180B63
:1032B000FDF792F853EC1A2BFDF791F841EC100B47
:1032C000CCE7000000000000000000000000F03F1C
:1032D0009C07000000000000000000000000E03F2C
:1032E0003333D33F0000E93F000000000000D23F2D
:1032F00070B504462DED028B4D1E00EBC500B0EEFF
:10330000408AF0EE608A90ED000B35F0060017D091
:1033100053EC182B51EC100BFDF764F841EC100B3B
:103320006D1E04EBC50090ED001B51EC100B53EC2F
:10333000112BFCF7B0FF41EC100B35F00600E7D184
:10334000022D36D0042D1CD0062D1CBFBDEC028BE7
:1033500070BD53EC182B51EC100BFDF743F894EDB6
:103360000A1B53EC112BFCF796FF53EC182BFDF7BF
:1033700039F894ED081B53EC112BFCF78CFF41EC52
:10338000100B53EC182B51EC100BFDF72BF894EDB0
:10339000061B53EC112BFCF77EFF53EC182BFDF7AB
:1033A00021F894ED040B53EC102BFCF774FF41EC67
:1033B000100B53EC182B51EC100BFDF713F894ED98
:1033C000021B53EC112BFCF766FF53EC182BFDF797
:1033D00009F894ED001B53EC112BFCF75CFFBDECDE
:1033E000028B41EC100B70BD31B504462DED040B82
:1033F0002DED0A8BB0EE41BAF0EE61BA0B989DED5F
:103400000A0B20F00040B0F1795F0DDA51EC100B9F
:10341000FFF71EFC042808BF00F09AF89DED0A0B88
:10342000BDEC0A8B05B030BD53EC102B51EC100BEA
:10343000FCF7D8FF41EC180B9DED0A0B53EC182B51
:1034400051EC100BFCF7CEFF41EC190B2C48B0EE01
:10345000480AF0EE680A05217844FFF749FF9FED1E
:103460002ACBB0EE40AAF0EE60AA9CB353EC1C2B22
:1034700051EC190BFCF7B6FF41EC1C0B53EC1A2B6B
:1034800051EC190BFCF7AEFF9FED210B41EC190B32
:1034900053EC102B51EC1B0BFCF7A4FF53EC192B36
:1034A000FCF79AFF53EC182BFCF79CFF53EC1B2BFB
:1034B000FCF792FF53EC1C2BFCF78EFF9DED0A1BD3
:1034C00053EC112BFCF78BFFBDEC0A8B05B041ECE4
:1034D000100B30BDFFE753EC1A2B51EC180BFCF727
:1034E00081FF53EC1C2BFCF7D6FE53EC192BFCF799
:1034F00079FF9DED0A1B53EC112BFCF7CCFEE3E7A3
:103500002406000000000000495555555555C5BF1B
:10351000000000000000E03F10B553EC102B51EC10
:10352000100BFCF7B8FE41EC100B10BD00000000C2
:103530009FED050B10B553EC102B51EC100BFDF764
:10354000E3F841EC100B10BD00000000000000008B
:103550009FED050B10B553EC102B51EC100BFCF745
:1035600041FF41EC100B10BD0000000000000010F6
:1035700002E008C8121F08C1002AFAD1704770473C
:10358000002001E001C1121F002AFBD1704700009A
:1035900001490860704700004800002038B5044623
:1035A00000BF1D48C06A0321B0FBF1F0206000207D
:1035B0006060A060642500BF2807406A0090204634
:1035C00000F002F912E000BF4FF08040406A00991D
:1035D000884200D16D1E00BF4FF08040406A0090CD
:1035E0004FF47A7000E0401E0028FCDC002DEAD188
:1035F000C820FEF7EFF900214FF08040FEF7E0F918
:10360000002003E0002144F82010401C0328F9DBCF
:10361000204600F0D9F838BD002C014082B0CDE939
:10362000000121F0004001909DED000B02B051EC33
:10363000100B704708B501204649096E0143454A01
:1036400011661146096E0140009100BF00BF0007DE
:103650001146896D014391651146896D01400091C4
:1036600000BF00BF032002463B4B19684FF6FF0323
:1036700019403A4B0B4343EA0221374B196000BF14
:1036800000BF3748806840F480403549886000BFFB
:10369000FFF762F9FEF70EFCFEF7A8FBFEF776FCDB
:1036A000FEF7CAF9FEF754FDFEF73AFEFFF7A6FA59
:1036B000FFF736FA4FF0A040FFF71EFAFFF7AEFA19
:1036C000FFF7BEFA00BF2748C06A00EE100AB8EE46
:1036D000400A254880ED000A00BF4FF08040C06AD4
:1036E00000EE100AB8EE400A204880ED000A9FED77
:1036F000200A204880ED010AB4EE080A80ED000A95
:103700009FED1D0A80ED030A1C49C8609FED1C0A4D
:103710001C4880ED010A9FED1C0A80ED000AB1EE05
:10372000040A80ED030A1949C86000F037F84FF425
:10373000E0511748FDF7B7FD4FF400614FF090409E
:10374000FDF7B1FD1348FFF729FF0120124908607A
:1037500000BFFEE7001002400CED00E00000FA059B
:1037600000700040002C0140300000202C000020A0
:10377000CDCCCC3C6C0000203333733F4C00002098
:103780006F12833A8000002055C1283C5C00002065
:1037900000080048BC0000202800002010B50021CF
:1037A0000848FEF70DF901210648FDF7B5FE102186
:1037B0000448FDF7B1FE4FF480710248FDF7ACFEFE
:1037C00010BD0000002C01400168054A516300BF94
:1037D0004168916300BF8168D16300BF70470000FA
:1037E000002C0140081C3044586C809401000200F9
:1037F0000400060008000A000C0010002000400031
:1038000080000001000000000404040438380000B7
:103810000800000008000008000008000000080080
:10382000000000020406080A0C0E10140001020336
:1038300004050607080A0000DB0F4940920A06400B
:10384000920A8640F90FC9409E531C4417B7D13ADB
:103850000DE0454017B751396F12033B000080401F
:10386000081C3044586C80940100020004000600DB
:1038700008000A000C001000200040008000000139
:1038800000000000040404043838000008000000B0
:103890000800000800000800000008000000000206
:1038A0000406080A0C0E10140001020304050607A2
:1038B000080A081C3044586C80940100020004007F
:1038C000060008000A000C001000200040008000E4
:1038D000000100000000040404043838000008005F
:1038E00000000800000800000800000008000000B8
:1038F00000020406080A0C0E10140001020304055D
:103900000607080A081C3044586C80940100020025
:103910000400060008000A000C001000200040000F
:103920008000000100000000040404043838000096
:10393000080000000800000800000800000008005F
:10394000000000020406080A0C0E10140001020315
:1039500004050607080A010002000400060008002A
:103960000A000C0010002000400080000001000050
:10397000000000000000010203040607080900001F
:1039800000000102030400004C5555555555A53F54
:103990007751C1166CC156BF9015CB19A001FA3EE4
:1039A000AD529C804F7E92BEC4B1B4BD9EEE213E0E
:1039B000D43888BEE9FAA8BD00004054FB21F93F85
:1039C0003163621A61B4D03D0000601A61B4D03D29
:1039D0007370032E8A19A33B0000002E8A19A33BA3
:1039E000C14920259A837B390000000000000000B7
:1039F0006E83F9A22915444ED15727FCC0DD34F55A
:103A0000999562DB4190433CAB6351FE61C5BBDEDF
:103A10003A6E24B7E0D24D42EA2E49061C92D109F3
:103A20001CEB1DFE3EA729B1F53582E88444BB2E70
:103A300026709CE9417E5FB439D69139F4395383BD
:103A40008B5F849C3B28F9BDFF97F81F0F9805DE1C
:103A50008B112FEF1F6D0A5ACF7E366DB709CB271A
:103A6000663F464F2DEA5F9EC7BA27757BF1E5EBAF
:103A7000F739073DEA92528AB15FFB6B085D8D1FF3
:103A8000A6F810111111813FD561C119A0012ABFFB
:103A90007DFEB157E31DC73EEB9C2B8AE6E55ABE7F
:103AA0007CD5CF5A3AD9E53DC83A0008000000203D
:103AB0004C00000070350008143B00084C0000204A
:103AC0007C040000803500080000000000000000B9
:103AD0000000000066669640000000000000000044
:103AE000000000000000000000004842000000004C
:103AF00000000000000000000000000000000000C6
:103B00000000000000000000000000000024F4009D
:043B100000000000B1
:04000005080001D915
:00000001FF
